{
	"contracts/UserManagement.sol": {
		"UserManagement": {
			"abi": [
				{
					"anonymous": false,
					"inputs": [
						{
							"indexed": false,
							"internalType": "address",
							"name": "courierAddr",
							"type": "address"
						}
					],
					"name": "CourierPenalized",
					"type": "event"
				},
				{
					"anonymous": false,
					"inputs": [
						{
							"indexed": false,
							"internalType": "address",
							"name": "courierAddr",
							"type": "address"
						}
					],
					"name": "CourierRewarded",
					"type": "event"
				},
				{
					"anonymous": false,
					"inputs": [
						{
							"indexed": false,
							"internalType": "string",
							"name": "message",
							"type": "string"
						}
					],
					"name": "RewardStarting",
					"type": "event"
				},
				{
					"anonymous": false,
					"inputs": [
						{
							"indexed": false,
							"internalType": "address",
							"name": "user",
							"type": "address"
						},
						{
							"indexed": false,
							"internalType": "enum UserManagement.Role",
							"name": "role",
							"type": "uint8"
						},
						{
							"indexed": false,
							"internalType": "string",
							"name": "message",
							"type": "string"
						}
					],
					"name": "UserRegistered",
					"type": "event"
				},
				{
					"inputs": [],
					"name": "DEFAULT_REPUTATION",
					"outputs": [
						{
							"internalType": "uint8",
							"name": "",
							"type": "uint8"
						}
					],
					"stateMutability": "view",
					"type": "function"
				},
				{
					"inputs": [],
					"name": "MAX_REPUTATION",
					"outputs": [
						{
							"internalType": "uint8",
							"name": "",
							"type": "uint8"
						}
					],
					"stateMutability": "view",
					"type": "function"
				},
				{
					"inputs": [],
					"name": "MIN_REPUTATION",
					"outputs": [
						{
							"internalType": "uint8",
							"name": "",
							"type": "uint8"
						}
					],
					"stateMutability": "view",
					"type": "function"
				},
				{
					"inputs": [],
					"name": "PENALTY_VALUE",
					"outputs": [
						{
							"internalType": "uint8",
							"name": "",
							"type": "uint8"
						}
					],
					"stateMutability": "view",
					"type": "function"
				},
				{
					"inputs": [],
					"name": "REWARD_VALUE",
					"outputs": [
						{
							"internalType": "uint8",
							"name": "",
							"type": "uint8"
						}
					],
					"stateMutability": "view",
					"type": "function"
				},
				{
					"inputs": [
						{
							"internalType": "address",
							"name": "",
							"type": "address"
						}
					],
					"name": "courierReputation",
					"outputs": [
						{
							"internalType": "uint8",
							"name": "",
							"type": "uint8"
						}
					],
					"stateMutability": "view",
					"type": "function"
				},
				{
					"inputs": [
						{
							"internalType": "address",
							"name": "",
							"type": "address"
						}
					],
					"name": "isRegistered",
					"outputs": [
						{
							"internalType": "bool",
							"name": "",
							"type": "bool"
						}
					],
					"stateMutability": "view",
					"type": "function"
				},
				{
					"inputs": [
						{
							"internalType": "address",
							"name": "_courierAddr",
							"type": "address"
						}
					],
					"name": "penalizeCourier",
					"outputs": [],
					"stateMutability": "nonpayable",
					"type": "function"
				},
				{
					"inputs": [
						{
							"internalType": "address",
							"name": "_courierAddr",
							"type": "address"
						}
					],
					"name": "registerAsCourier",
					"outputs": [],
					"stateMutability": "nonpayable",
					"type": "function"
				},
				{
					"inputs": [
						{
							"internalType": "address",
							"name": "_courierAddr",
							"type": "address"
						}
					],
					"name": "registerAsReciever",
					"outputs": [],
					"stateMutability": "nonpayable",
					"type": "function"
				},
				{
					"inputs": [
						{
							"internalType": "address",
							"name": "_courierAddr",
							"type": "address"
						}
					],
					"name": "registerAsSender",
					"outputs": [],
					"stateMutability": "nonpayable",
					"type": "function"
				},
				{
					"inputs": [
						{
							"internalType": "address",
							"name": "_courierAddr",
							"type": "address"
						}
					],
					"name": "rewardCourier",
					"outputs": [],
					"stateMutability": "nonpayable",
					"type": "function"
				},
				{
					"inputs": [
						{
							"internalType": "address",
							"name": "",
							"type": "address"
						}
					],
					"name": "userRoles",
					"outputs": [
						{
							"internalType": "enum UserManagement.Role",
							"name": "",
							"type": "uint8"
						}
					],
					"stateMutability": "view",
					"type": "function"
				}
			],
			"devdoc": {
				"kind": "dev",
				"methods": {},
				"version": 1
			},
			"evm": {
				"assembly": "    /* \"contracts/UserManagement.sol\":57:2370  contract UserManagement {... */\n  mstore(0x40, 0x80)\n  callvalue\n  dup1\n  iszero\n  tag_1\n  jumpi\n  0x00\n  dup1\n  revert\ntag_1:\n  pop\n  dataSize(sub_0)\n  dup1\n  dataOffset(sub_0)\n  0x00\n  codecopy\n  0x00\n  return\nstop\n\nsub_0: assembly {\n        /* \"contracts/UserManagement.sol\":57:2370  contract UserManagement {... */\n      mstore(0x40, 0x80)\n      callvalue\n      dup1\n      iszero\n      tag_1\n      jumpi\n      0x00\n      dup1\n      revert\n    tag_1:\n      pop\n      jumpi(tag_2, lt(calldatasize, 0x04))\n      shr(0xe0, calldataload(0x00))\n      dup1\n      0x74d5e100\n      gt\n      tag_16\n      jumpi\n      dup1\n      0xd213c0f2\n      gt\n      tag_17\n      jumpi\n      dup1\n      0xd213c0f2\n      eq\n      tag_12\n      jumpi\n      dup1\n      0xfb357d70\n      eq\n      tag_13\n      jumpi\n      dup1\n      0xfc92503f\n      eq\n      tag_14\n      jumpi\n      dup1\n      0xfef3d253\n      eq\n      tag_15\n      jumpi\n      jump(tag_2)\n    tag_17:\n      dup1\n      0x74d5e100\n      eq\n      tag_9\n      jumpi\n      dup1\n      0xc3c5a547\n      eq\n      tag_10\n      jumpi\n      dup1\n      0xcb6baeb8\n      eq\n      tag_11\n      jumpi\n      jump(tag_2)\n    tag_16:\n      dup1\n      0x20b9e087\n      eq\n      tag_3\n      jumpi\n      dup1\n      0x481950b8\n      eq\n      tag_4\n      jumpi\n      dup1\n      0x524ecda4\n      eq\n      tag_5\n      jumpi\n      dup1\n      0x6833ebcf\n      eq\n      tag_6\n      jumpi\n      dup1\n      0x697c6045\n      eq\n      tag_7\n      jumpi\n      dup1\n      0x69ce34ab\n      eq\n      tag_8\n      jumpi\n    tag_2:\n      0x00\n      dup1\n      revert\n        /* \"contracts/UserManagement.sol\":1101:1424  function registerAsReciever(address _courierAddr) external  {... */\n    tag_3:\n      tag_18\n      0x04\n      dup1\n      calldatasize\n      sub\n      dup2\n      add\n      swap1\n      tag_19\n      swap2\n      swap1\n      tag_20\n      jump\t// in\n    tag_19:\n      tag_21\n      jump\t// in\n    tag_18:\n      stop\n        /* \"contracts/UserManagement.sol\":501:553  mapping(address => uint8)   public courierReputation */\n    tag_4:\n      tag_22\n      0x04\n      dup1\n      calldatasize\n      sub\n      dup2\n      add\n      swap1\n      tag_23\n      swap2\n      swap1\n      tag_20\n      jump\t// in\n    tag_23:\n      tag_24\n      jump\t// in\n    tag_22:\n      mload(0x40)\n      tag_25\n      swap2\n      swap1\n      tag_26\n      jump\t// in\n    tag_25:\n      mload(0x40)\n      dup1\n      swap2\n      sub\n      swap1\n      return\n        /* \"contracts/UserManagement.sol\":307:345  uint8 public constant REWARD_VALUE = 5 */\n    tag_5:\n      tag_27\n      tag_28\n      jump\t// in\n    tag_27:\n      mload(0x40)\n      tag_29\n      swap2\n      swap1\n      tag_26\n      jump\t// in\n    tag_29:\n      mload(0x40)\n      dup1\n      swap2\n      sub\n      swap1\n      return\n        /* \"contracts/UserManagement.sol\":1430:1811  function registerAsCourier(address _courierAddr) external  {... */\n    tag_6:\n      tag_30\n      0x04\n      dup1\n      calldatasize\n      sub\n      dup2\n      add\n      swap1\n      tag_31\n      swap2\n      swap1\n      tag_20\n      jump\t// in\n    tag_31:\n      tag_32\n      jump\t// in\n    tag_30:\n      stop\n        /* \"contracts/UserManagement.sol\":261:301  uint8 public constant MIN_REPUTATION = 0 */\n    tag_7:\n      tag_33\n      tag_34\n      jump\t// in\n    tag_33:\n      mload(0x40)\n      tag_35\n      swap2\n      swap1\n      tag_26\n      jump\t// in\n    tag_35:\n      mload(0x40)\n      dup1\n      swap2\n      sub\n      swap1\n      return\n        /* \"contracts/UserManagement.sol\":162:207  uint8 public constant DEFAULT_REPUTATION = 50 */\n    tag_8:\n      tag_36\n      tag_37\n      jump\t// in\n    tag_36:\n      mload(0x40)\n      tag_38\n      swap2\n      swap1\n      tag_26\n      jump\t// in\n    tag_38:\n      mload(0x40)\n      dup1\n      swap2\n      sub\n      swap1\n      return\n        /* \"contracts/UserManagement.sol\":398:442  mapping(address => Role)    public userRoles */\n    tag_9:\n      tag_39\n      0x04\n      dup1\n      calldatasize\n      sub\n      dup2\n      add\n      swap1\n      tag_40\n      swap2\n      swap1\n      tag_20\n      jump\t// in\n    tag_40:\n      tag_41\n      jump\t// in\n    tag_39:\n      mload(0x40)\n      tag_42\n      swap2\n      swap1\n      tag_43\n      jump\t// in\n    tag_42:\n      mload(0x40)\n      dup1\n      swap2\n      sub\n      swap1\n      return\n        /* \"contracts/UserManagement.sol\":448:495  mapping(address => bool)    public isRegistered */\n    tag_10:\n      tag_44\n      0x04\n      dup1\n      calldatasize\n      sub\n      dup2\n      add\n      swap1\n      tag_45\n      swap2\n      swap1\n      tag_20\n      jump\t// in\n    tag_45:\n      tag_46\n      jump\t// in\n    tag_44:\n      mload(0x40)\n      tag_47\n      swap2\n      swap1\n      tag_48\n      jump\t// in\n    tag_47:\n      mload(0x40)\n      dup1\n      swap2\n      sub\n      swap1\n      return\n        /* \"contracts/UserManagement.sol\":351:391  uint8 public constant PENALTY_VALUE = 10 */\n    tag_11:\n      tag_49\n      tag_50\n      jump\t// in\n    tag_49:\n      mload(0x40)\n      tag_51\n      swap2\n      swap1\n      tag_26\n      jump\t// in\n    tag_51:\n      mload(0x40)\n      dup1\n      swap2\n      sub\n      swap1\n      return\n        /* \"contracts/UserManagement.sol\":213:255  uint8 public constant MAX_REPUTATION = 150 */\n    tag_12:\n      tag_52\n      tag_53\n      jump\t// in\n    tag_52:\n      mload(0x40)\n      tag_54\n      swap2\n      swap1\n      tag_26\n      jump\t// in\n    tag_54:\n      mload(0x40)\n      dup1\n      swap2\n      sub\n      swap1\n      return\n        /* \"contracts/UserManagement.sol\":783:1095  function registerAsSender(address _courierAddr) external  {... */\n    tag_13:\n      tag_55\n      0x04\n      dup1\n      calldatasize\n      sub\n      dup2\n      add\n      swap1\n      tag_56\n      swap2\n      swap1\n      tag_20\n      jump\t// in\n    tag_56:\n      tag_57\n      jump\t// in\n    tag_55:\n      stop\n        /* \"contracts/UserManagement.sol\":2106:2368  function penalizeCourier(address _courierAddr) external {... */\n    tag_14:\n      tag_58\n      0x04\n      dup1\n      calldatasize\n      sub\n      dup2\n      add\n      swap1\n      tag_59\n      swap2\n      swap1\n      tag_20\n      jump\t// in\n    tag_59:\n      tag_60\n      jump\t// in\n    tag_58:\n      stop\n        /* \"contracts/UserManagement.sol\":1843:2100  function rewardCourier(address _courierAddr) external {... */\n    tag_15:\n      tag_61\n      0x04\n      dup1\n      calldatasize\n      sub\n      dup2\n      add\n      swap1\n      tag_62\n      swap2\n      swap1\n      tag_20\n      jump\t// in\n    tag_62:\n      tag_63\n      jump\t// in\n    tag_61:\n      stop\n        /* \"contracts/UserManagement.sol\":1101:1424  function registerAsReciever(address _courierAddr) external  {... */\n    tag_21:\n        /* \"contracts/UserManagement.sol\":1180:1192  isRegistered */\n      0x01\n        /* \"contracts/UserManagement.sol\":1180:1206  isRegistered[_courierAddr] */\n      0x00\n        /* \"contracts/UserManagement.sol\":1193:1205  _courierAddr */\n      dup3\n        /* \"contracts/UserManagement.sol\":1180:1206  isRegistered[_courierAddr] */\n      0xffffffffffffffffffffffffffffffffffffffff\n      and\n      0xffffffffffffffffffffffffffffffffffffffff\n      and\n      dup2\n      mstore\n      0x20\n      add\n      swap1\n      dup2\n      mstore\n      0x20\n      add\n      0x00\n      keccak256\n      0x00\n      swap1\n      sload\n      swap1\n      0x0100\n      exp\n      swap1\n      div\n      0xff\n      and\n        /* \"contracts/UserManagement.sol\":1179:1206  !isRegistered[_courierAddr] */\n      iszero\n        /* \"contracts/UserManagement.sol\":1171:1235  require(!isRegistered[_courierAddr], \"User already registered!\") */\n      tag_65\n      jumpi\n      mload(0x40)\n      0x08c379a000000000000000000000000000000000000000000000000000000000\n      dup2\n      mstore\n      0x04\n      add\n      tag_66\n      swap1\n      tag_67\n      jump\t// in\n    tag_66:\n      mload(0x40)\n      dup1\n      swap2\n      sub\n      swap1\n      revert\n    tag_65:\n        /* \"contracts/UserManagement.sol\":1272:1285  Role.Receiver */\n      0x02\n        /* \"contracts/UserManagement.sol\":1246:1255  userRoles */\n      0x00\n        /* \"contracts/UserManagement.sol\":1246:1269  userRoles[_courierAddr] */\n      dup1\n        /* \"contracts/UserManagement.sol\":1256:1268  _courierAddr */\n      dup4\n        /* \"contracts/UserManagement.sol\":1246:1269  userRoles[_courierAddr] */\n      0xffffffffffffffffffffffffffffffffffffffff\n      and\n      0xffffffffffffffffffffffffffffffffffffffff\n      and\n      dup2\n      mstore\n      0x20\n      add\n      swap1\n      dup2\n      mstore\n      0x20\n      add\n      0x00\n      keccak256\n      0x00\n        /* \"contracts/UserManagement.sol\":1246:1285  userRoles[_courierAddr] = Role.Receiver */\n      0x0100\n      exp\n      dup2\n      sload\n      dup2\n      0xff\n      mul\n      not\n      and\n      swap1\n      dup4\n      0x02\n      dup2\n      gt\n      iszero\n      tag_68\n      jumpi\n      tag_69\n      tag_70\n      jump\t// in\n    tag_69:\n    tag_68:\n      mul\n      or\n      swap1\n      sstore\n      pop\n        /* \"contracts/UserManagement.sol\":1324:1328  true */\n      0x01\n        /* \"contracts/UserManagement.sol\":1295:1307  isRegistered */\n      dup1\n        /* \"contracts/UserManagement.sol\":1295:1321  isRegistered[_courierAddr] */\n      0x00\n        /* \"contracts/UserManagement.sol\":1308:1320  _courierAddr */\n      dup4\n        /* \"contracts/UserManagement.sol\":1295:1321  isRegistered[_courierAddr] */\n      0xffffffffffffffffffffffffffffffffffffffff\n      and\n      0xffffffffffffffffffffffffffffffffffffffff\n      and\n      dup2\n      mstore\n      0x20\n      add\n      swap1\n      dup2\n      mstore\n      0x20\n      add\n      0x00\n      keccak256\n      0x00\n        /* \"contracts/UserManagement.sol\":1295:1328  isRegistered[_courierAddr] = true */\n      0x0100\n      exp\n      dup2\n      sload\n      dup2\n      0xff\n      mul\n      not\n      and\n      swap1\n      dup4\n      iszero\n      iszero\n      mul\n      or\n      swap1\n      sstore\n      pop\n        /* \"contracts/UserManagement.sol\":1344:1413  UserRegistered(_courierAddr, Role.Receiver, \"Registered as Receiver\") */\n      0x04221ffa167b8d0a33647e46ee4f6728f4fe3651e4d56715ed0941b12046147b\n        /* \"contracts/UserManagement.sol\":1359:1371  _courierAddr */\n      dup2\n        /* \"contracts/UserManagement.sol\":1373:1386  Role.Receiver */\n      0x02\n        /* \"contracts/UserManagement.sol\":1344:1413  UserRegistered(_courierAddr, Role.Receiver, \"Registered as Receiver\") */\n      mload(0x40)\n      tag_71\n      swap3\n      swap2\n      swap1\n      tag_72\n      jump\t// in\n    tag_71:\n      mload(0x40)\n      dup1\n      swap2\n      sub\n      swap1\n      log1\n        /* \"contracts/UserManagement.sol\":1101:1424  function registerAsReciever(address _courierAddr) external  {... */\n      pop\n      jump\t// out\n        /* \"contracts/UserManagement.sol\":501:553  mapping(address => uint8)   public courierReputation */\n    tag_24:\n      mstore(0x20, 0x02)\n      dup1\n      0x00\n      mstore\n      keccak256(0x00, 0x40)\n      0x00\n      swap2\n      pop\n      sload\n      swap1\n      0x0100\n      exp\n      swap1\n      div\n      0xff\n      and\n      dup2\n      jump\t// out\n        /* \"contracts/UserManagement.sol\":307:345  uint8 public constant REWARD_VALUE = 5 */\n    tag_28:\n        /* \"contracts/UserManagement.sol\":344:345  5 */\n      0x05\n        /* \"contracts/UserManagement.sol\":307:345  uint8 public constant REWARD_VALUE = 5 */\n      dup2\n      jump\t// out\n        /* \"contracts/UserManagement.sol\":1430:1811  function registerAsCourier(address _courierAddr) external  {... */\n    tag_32:\n        /* \"contracts/UserManagement.sol\":1508:1520  isRegistered */\n      0x01\n        /* \"contracts/UserManagement.sol\":1508:1534  isRegistered[_courierAddr] */\n      0x00\n        /* \"contracts/UserManagement.sol\":1521:1533  _courierAddr */\n      dup3\n        /* \"contracts/UserManagement.sol\":1508:1534  isRegistered[_courierAddr] */\n      0xffffffffffffffffffffffffffffffffffffffff\n      and\n      0xffffffffffffffffffffffffffffffffffffffff\n      and\n      dup2\n      mstore\n      0x20\n      add\n      swap1\n      dup2\n      mstore\n      0x20\n      add\n      0x00\n      keccak256\n      0x00\n      swap1\n      sload\n      swap1\n      0x0100\n      exp\n      swap1\n      div\n      0xff\n      and\n        /* \"contracts/UserManagement.sol\":1507:1534  !isRegistered[_courierAddr] */\n      iszero\n        /* \"contracts/UserManagement.sol\":1499:1563  require(!isRegistered[_courierAddr], \"User already registered!\") */\n      tag_74\n      jumpi\n      mload(0x40)\n      0x08c379a000000000000000000000000000000000000000000000000000000000\n      dup2\n      mstore\n      0x04\n      add\n      tag_75\n      swap1\n      tag_67\n      jump\t// in\n    tag_75:\n      mload(0x40)\n      dup1\n      swap2\n      sub\n      swap1\n      revert\n    tag_74:\n        /* \"contracts/UserManagement.sol\":1600:1612  Role.Courier */\n      0x01\n        /* \"contracts/UserManagement.sol\":1574:1583  userRoles */\n      0x00\n        /* \"contracts/UserManagement.sol\":1574:1597  userRoles[_courierAddr] */\n      dup1\n        /* \"contracts/UserManagement.sol\":1584:1596  _courierAddr */\n      dup4\n        /* \"contracts/UserManagement.sol\":1574:1597  userRoles[_courierAddr] */\n      0xffffffffffffffffffffffffffffffffffffffff\n      and\n      0xffffffffffffffffffffffffffffffffffffffff\n      and\n      dup2\n      mstore\n      0x20\n      add\n      swap1\n      dup2\n      mstore\n      0x20\n      add\n      0x00\n      keccak256\n      0x00\n        /* \"contracts/UserManagement.sol\":1574:1612  userRoles[_courierAddr] = Role.Courier */\n      0x0100\n      exp\n      dup2\n      sload\n      dup2\n      0xff\n      mul\n      not\n      and\n      swap1\n      dup4\n      0x02\n      dup2\n      gt\n      iszero\n      tag_76\n      jumpi\n      tag_77\n      tag_70\n      jump\t// in\n    tag_77:\n    tag_76:\n      mul\n      or\n      swap1\n      sstore\n      pop\n        /* \"contracts/UserManagement.sol\":1651:1655  true */\n      0x01\n        /* \"contracts/UserManagement.sol\":1622:1634  isRegistered */\n      dup1\n        /* \"contracts/UserManagement.sol\":1622:1648  isRegistered[_courierAddr] */\n      0x00\n        /* \"contracts/UserManagement.sol\":1635:1647  _courierAddr */\n      dup4\n        /* \"contracts/UserManagement.sol\":1622:1648  isRegistered[_courierAddr] */\n      0xffffffffffffffffffffffffffffffffffffffff\n      and\n      0xffffffffffffffffffffffffffffffffffffffff\n      and\n      dup2\n      mstore\n      0x20\n      add\n      swap1\n      dup2\n      mstore\n      0x20\n      add\n      0x00\n      keccak256\n      0x00\n        /* \"contracts/UserManagement.sol\":1622:1655  isRegistered[_courierAddr] = true */\n      0x0100\n      exp\n      dup2\n      sload\n      dup2\n      0xff\n      mul\n      not\n      and\n      swap1\n      dup4\n      iszero\n      iszero\n      mul\n      or\n      swap1\n      sstore\n      pop\n        /* \"contracts/UserManagement.sol\":205:207  50 */\n      0x32\n        /* \"contracts/UserManagement.sol\":1665:1682  courierReputation */\n      0x02\n        /* \"contracts/UserManagement.sol\":1665:1696  courierReputation[_courierAddr] */\n      0x00\n        /* \"contracts/UserManagement.sol\":1683:1695  _courierAddr */\n      dup4\n        /* \"contracts/UserManagement.sol\":1665:1696  courierReputation[_courierAddr] */\n      0xffffffffffffffffffffffffffffffffffffffff\n      and\n      0xffffffffffffffffffffffffffffffffffffffff\n      and\n      dup2\n      mstore\n      0x20\n      add\n      swap1\n      dup2\n      mstore\n      0x20\n      add\n      0x00\n      keccak256\n      0x00\n        /* \"contracts/UserManagement.sol\":1665:1717  courierReputation[_courierAddr] = DEFAULT_REPUTATION */\n      0x0100\n      exp\n      dup2\n      sload\n      dup2\n      0xff\n      mul\n      not\n      and\n      swap1\n      dup4\n      0xff\n      and\n      mul\n      or\n      swap1\n      sstore\n      pop\n        /* \"contracts/UserManagement.sol\":1733:1800  UserRegistered(_courierAddr, Role.Courier, \"Registered as Courier\") */\n      0x04221ffa167b8d0a33647e46ee4f6728f4fe3651e4d56715ed0941b12046147b\n        /* \"contracts/UserManagement.sol\":1748:1760  _courierAddr */\n      dup2\n        /* \"contracts/UserManagement.sol\":1762:1774  Role.Courier */\n      0x01\n        /* \"contracts/UserManagement.sol\":1733:1800  UserRegistered(_courierAddr, Role.Courier, \"Registered as Courier\") */\n      mload(0x40)\n      tag_78\n      swap3\n      swap2\n      swap1\n      tag_79\n      jump\t// in\n    tag_78:\n      mload(0x40)\n      dup1\n      swap2\n      sub\n      swap1\n      log1\n        /* \"contracts/UserManagement.sol\":1430:1811  function registerAsCourier(address _courierAddr) external  {... */\n      pop\n      jump\t// out\n        /* \"contracts/UserManagement.sol\":261:301  uint8 public constant MIN_REPUTATION = 0 */\n    tag_34:\n        /* \"contracts/UserManagement.sol\":300:301  0 */\n      0x00\n        /* \"contracts/UserManagement.sol\":261:301  uint8 public constant MIN_REPUTATION = 0 */\n      dup2\n      jump\t// out\n        /* \"contracts/UserManagement.sol\":162:207  uint8 public constant DEFAULT_REPUTATION = 50 */\n    tag_37:\n        /* \"contracts/UserManagement.sol\":205:207  50 */\n      0x32\n        /* \"contracts/UserManagement.sol\":162:207  uint8 public constant DEFAULT_REPUTATION = 50 */\n      dup2\n      jump\t// out\n        /* \"contracts/UserManagement.sol\":398:442  mapping(address => Role)    public userRoles */\n    tag_41:\n      mstore(0x20, 0x00)\n      dup1\n      0x00\n      mstore\n      keccak256(0x00, 0x40)\n      0x00\n      swap2\n      pop\n      sload\n      swap1\n      0x0100\n      exp\n      swap1\n      div\n      0xff\n      and\n      dup2\n      jump\t// out\n        /* \"contracts/UserManagement.sol\":448:495  mapping(address => bool)    public isRegistered */\n    tag_46:\n      mstore(0x20, 0x01)\n      dup1\n      0x00\n      mstore\n      keccak256(0x00, 0x40)\n      0x00\n      swap2\n      pop\n      sload\n      swap1\n      0x0100\n      exp\n      swap1\n      div\n      0xff\n      and\n      dup2\n      jump\t// out\n        /* \"contracts/UserManagement.sol\":351:391  uint8 public constant PENALTY_VALUE = 10 */\n    tag_50:\n        /* \"contracts/UserManagement.sol\":389:391  10 */\n      0x0a\n        /* \"contracts/UserManagement.sol\":351:391  uint8 public constant PENALTY_VALUE = 10 */\n      dup2\n      jump\t// out\n        /* \"contracts/UserManagement.sol\":213:255  uint8 public constant MAX_REPUTATION = 150 */\n    tag_53:\n        /* \"contracts/UserManagement.sol\":252:255  150 */\n      0x96\n        /* \"contracts/UserManagement.sol\":213:255  uint8 public constant MAX_REPUTATION = 150 */\n      dup2\n      jump\t// out\n        /* \"contracts/UserManagement.sol\":783:1095  function registerAsSender(address _courierAddr) external  {... */\n    tag_57:\n        /* \"contracts/UserManagement.sol\":860:872  isRegistered */\n      0x01\n        /* \"contracts/UserManagement.sol\":860:886  isRegistered[_courierAddr] */\n      0x00\n        /* \"contracts/UserManagement.sol\":873:885  _courierAddr */\n      dup3\n        /* \"contracts/UserManagement.sol\":860:886  isRegistered[_courierAddr] */\n      0xffffffffffffffffffffffffffffffffffffffff\n      and\n      0xffffffffffffffffffffffffffffffffffffffff\n      and\n      dup2\n      mstore\n      0x20\n      add\n      swap1\n      dup2\n      mstore\n      0x20\n      add\n      0x00\n      keccak256\n      0x00\n      swap1\n      sload\n      swap1\n      0x0100\n      exp\n      swap1\n      div\n      0xff\n      and\n        /* \"contracts/UserManagement.sol\":859:886  !isRegistered[_courierAddr] */\n      iszero\n        /* \"contracts/UserManagement.sol\":851:915  require(!isRegistered[_courierAddr], \"User already registered!\") */\n      tag_81\n      jumpi\n      mload(0x40)\n      0x08c379a000000000000000000000000000000000000000000000000000000000\n      dup2\n      mstore\n      0x04\n      add\n      tag_82\n      swap1\n      tag_67\n      jump\t// in\n    tag_82:\n      mload(0x40)\n      dup1\n      swap2\n      sub\n      swap1\n      revert\n    tag_81:\n        /* \"contracts/UserManagement.sol\":952:963  Role.Sender */\n      0x00\n        /* \"contracts/UserManagement.sol\":926:935  userRoles */\n      dup1\n        /* \"contracts/UserManagement.sol\":926:949  userRoles[_courierAddr] */\n      0x00\n        /* \"contracts/UserManagement.sol\":936:948  _courierAddr */\n      dup4\n        /* \"contracts/UserManagement.sol\":926:949  userRoles[_courierAddr] */\n      0xffffffffffffffffffffffffffffffffffffffff\n      and\n      0xffffffffffffffffffffffffffffffffffffffff\n      and\n      dup2\n      mstore\n      0x20\n      add\n      swap1\n      dup2\n      mstore\n      0x20\n      add\n      0x00\n      keccak256\n      0x00\n        /* \"contracts/UserManagement.sol\":926:963  userRoles[_courierAddr] = Role.Sender */\n      0x0100\n      exp\n      dup2\n      sload\n      dup2\n      0xff\n      mul\n      not\n      and\n      swap1\n      dup4\n      0x02\n      dup2\n      gt\n      iszero\n      tag_83\n      jumpi\n      tag_84\n      tag_70\n      jump\t// in\n    tag_84:\n    tag_83:\n      mul\n      or\n      swap1\n      sstore\n      pop\n        /* \"contracts/UserManagement.sol\":1002:1006  true */\n      0x01\n        /* \"contracts/UserManagement.sol\":973:985  isRegistered */\n      dup1\n        /* \"contracts/UserManagement.sol\":973:999  isRegistered[_courierAddr] */\n      0x00\n        /* \"contracts/UserManagement.sol\":986:998  _courierAddr */\n      dup4\n        /* \"contracts/UserManagement.sol\":973:999  isRegistered[_courierAddr] */\n      0xffffffffffffffffffffffffffffffffffffffff\n      and\n      0xffffffffffffffffffffffffffffffffffffffff\n      and\n      dup2\n      mstore\n      0x20\n      add\n      swap1\n      dup2\n      mstore\n      0x20\n      add\n      0x00\n      keccak256\n      0x00\n        /* \"contracts/UserManagement.sol\":973:1006  isRegistered[_courierAddr] = true */\n      0x0100\n      exp\n      dup2\n      sload\n      dup2\n      0xff\n      mul\n      not\n      and\n      swap1\n      dup4\n      iszero\n      iszero\n      mul\n      or\n      swap1\n      sstore\n      pop\n        /* \"contracts/UserManagement.sol\":1022:1088  UserRegistered(_courierAddr, Role.Sender, \"Registered as Sender.\") */\n      0x04221ffa167b8d0a33647e46ee4f6728f4fe3651e4d56715ed0941b12046147b\n        /* \"contracts/UserManagement.sol\":1037:1049  _courierAddr */\n      dup2\n        /* \"contracts/UserManagement.sol\":1051:1062  Role.Sender */\n      0x00\n        /* \"contracts/UserManagement.sol\":1022:1088  UserRegistered(_courierAddr, Role.Sender, \"Registered as Sender.\") */\n      mload(0x40)\n      tag_85\n      swap3\n      swap2\n      swap1\n      tag_86\n      jump\t// in\n    tag_85:\n      mload(0x40)\n      dup1\n      swap2\n      sub\n      swap1\n      log1\n        /* \"contracts/UserManagement.sol\":783:1095  function registerAsSender(address _courierAddr) external  {... */\n      pop\n      jump\t// out\n        /* \"contracts/UserManagement.sol\":2106:2368  function penalizeCourier(address _courierAddr) external {... */\n    tag_60:\n        /* \"contracts/UserManagement.sol\":300:301  0 */\n      0x00\n        /* \"contracts/UserManagement.sol\":2176:2241  courierReputation[_courierAddr] - PENALTY_VALUE >= MIN_REPUTATION */\n      0xff\n      and\n        /* \"contracts/UserManagement.sol\":389:391  10 */\n      0x0a\n        /* \"contracts/UserManagement.sol\":2176:2193  courierReputation */\n      0x02\n        /* \"contracts/UserManagement.sol\":2176:2207  courierReputation[_courierAddr] */\n      0x00\n        /* \"contracts/UserManagement.sol\":2194:2206  _courierAddr */\n      dup5\n        /* \"contracts/UserManagement.sol\":2176:2207  courierReputation[_courierAddr] */\n      0xffffffffffffffffffffffffffffffffffffffff\n      and\n      0xffffffffffffffffffffffffffffffffffffffff\n      and\n      dup2\n      mstore\n      0x20\n      add\n      swap1\n      dup2\n      mstore\n      0x20\n      add\n      0x00\n      keccak256\n      0x00\n      swap1\n      sload\n      swap1\n      0x0100\n      exp\n      swap1\n      div\n      0xff\n      and\n        /* \"contracts/UserManagement.sol\":2176:2223  courierReputation[_courierAddr] - PENALTY_VALUE */\n      tag_88\n      swap2\n      swap1\n      tag_89\n      jump\t// in\n    tag_88:\n        /* \"contracts/UserManagement.sol\":2176:2241  courierReputation[_courierAddr] - PENALTY_VALUE >= MIN_REPUTATION */\n      0xff\n      and\n      lt\n        /* \"contracts/UserManagement.sol\":2172:2316  if (courierReputation[_courierAddr] - PENALTY_VALUE >= MIN_REPUTATION) {... */\n      tag_90\n      jumpi\n        /* \"contracts/UserManagement.sol\":389:391  10 */\n      0x0a\n        /* \"contracts/UserManagement.sol\":2257:2274  courierReputation */\n      0x02\n        /* \"contracts/UserManagement.sol\":2257:2288  courierReputation[_courierAddr] */\n      0x00\n        /* \"contracts/UserManagement.sol\":2275:2287  _courierAddr */\n      dup4\n        /* \"contracts/UserManagement.sol\":2257:2288  courierReputation[_courierAddr] */\n      0xffffffffffffffffffffffffffffffffffffffff\n      and\n      0xffffffffffffffffffffffffffffffffffffffff\n      and\n      dup2\n      mstore\n      0x20\n      add\n      swap1\n      dup2\n      mstore\n      0x20\n      add\n      0x00\n      keccak256\n      0x00\n        /* \"contracts/UserManagement.sol\":2257:2305  courierReputation[_courierAddr] -= PENALTY_VALUE */\n      dup3\n      dup3\n      dup3\n      swap1\n      sload\n      swap1\n      0x0100\n      exp\n      swap1\n      div\n      0xff\n      and\n      tag_91\n      swap2\n      swap1\n      tag_89\n      jump\t// in\n    tag_91:\n      swap3\n      pop\n      0x0100\n      exp\n      dup2\n      sload\n      dup2\n      0xff\n      mul\n      not\n      and\n      swap1\n      dup4\n      0xff\n      and\n      mul\n      or\n      swap1\n      sstore\n      pop\n        /* \"contracts/UserManagement.sol\":2172:2316  if (courierReputation[_courierAddr] - PENALTY_VALUE >= MIN_REPUTATION) {... */\n    tag_90:\n        /* \"contracts/UserManagement.sol\":2331:2361  CourierPenalized(_courierAddr) */\n      0x446103b2780ad05f3fe19cd37f39e93e452c1947fe60e508b915815f155b7d29\n        /* \"contracts/UserManagement.sol\":2348:2360  _courierAddr */\n      dup2\n        /* \"contracts/UserManagement.sol\":2331:2361  CourierPenalized(_courierAddr) */\n      mload(0x40)\n      tag_92\n      swap2\n      swap1\n      tag_93\n      jump\t// in\n    tag_92:\n      mload(0x40)\n      dup1\n      swap2\n      sub\n      swap1\n      log1\n        /* \"contracts/UserManagement.sol\":2106:2368  function penalizeCourier(address _courierAddr) external {... */\n      pop\n      jump\t// out\n        /* \"contracts/UserManagement.sol\":1843:2100  function rewardCourier(address _courierAddr) external {... */\n    tag_63:\n        /* \"contracts/UserManagement.sol\":252:255  150 */\n      0x96\n        /* \"contracts/UserManagement.sol\":1911:1975  courierReputation[_courierAddr] + REWARD_VALUE <= MAX_REPUTATION */\n      0xff\n      and\n        /* \"contracts/UserManagement.sol\":344:345  5 */\n      0x05\n        /* \"contracts/UserManagement.sol\":1911:1928  courierReputation */\n      0x02\n        /* \"contracts/UserManagement.sol\":1911:1942  courierReputation[_courierAddr] */\n      0x00\n        /* \"contracts/UserManagement.sol\":1929:1941  _courierAddr */\n      dup5\n        /* \"contracts/UserManagement.sol\":1911:1942  courierReputation[_courierAddr] */\n      0xffffffffffffffffffffffffffffffffffffffff\n      and\n      0xffffffffffffffffffffffffffffffffffffffff\n      and\n      dup2\n      mstore\n      0x20\n      add\n      swap1\n      dup2\n      mstore\n      0x20\n      add\n      0x00\n      keccak256\n      0x00\n      swap1\n      sload\n      swap1\n      0x0100\n      exp\n      swap1\n      div\n      0xff\n      and\n        /* \"contracts/UserManagement.sol\":1911:1957  courierReputation[_courierAddr] + REWARD_VALUE */\n      tag_95\n      swap2\n      swap1\n      tag_96\n      jump\t// in\n    tag_95:\n        /* \"contracts/UserManagement.sol\":1911:1975  courierReputation[_courierAddr] + REWARD_VALUE <= MAX_REPUTATION */\n      0xff\n      and\n      gt\n        /* \"contracts/UserManagement.sol\":1907:2049  if (courierReputation[_courierAddr] + REWARD_VALUE <= MAX_REPUTATION) {... */\n      tag_97\n      jumpi\n        /* \"contracts/UserManagement.sol\":344:345  5 */\n      0x05\n        /* \"contracts/UserManagement.sol\":1991:2008  courierReputation */\n      0x02\n        /* \"contracts/UserManagement.sol\":1991:2022  courierReputation[_courierAddr] */\n      0x00\n        /* \"contracts/UserManagement.sol\":2009:2021  _courierAddr */\n      dup4\n        /* \"contracts/UserManagement.sol\":1991:2022  courierReputation[_courierAddr] */\n      0xffffffffffffffffffffffffffffffffffffffff\n      and\n      0xffffffffffffffffffffffffffffffffffffffff\n      and\n      dup2\n      mstore\n      0x20\n      add\n      swap1\n      dup2\n      mstore\n      0x20\n      add\n      0x00\n      keccak256\n      0x00\n        /* \"contracts/UserManagement.sol\":1991:2038  courierReputation[_courierAddr] += REWARD_VALUE */\n      dup3\n      dup3\n      dup3\n      swap1\n      sload\n      swap1\n      0x0100\n      exp\n      swap1\n      div\n      0xff\n      and\n      tag_98\n      swap2\n      swap1\n      tag_96\n      jump\t// in\n    tag_98:\n      swap3\n      pop\n      0x0100\n      exp\n      dup2\n      sload\n      dup2\n      0xff\n      mul\n      not\n      and\n      swap1\n      dup4\n      0xff\n      and\n      mul\n      or\n      swap1\n      sstore\n      pop\n        /* \"contracts/UserManagement.sol\":1907:2049  if (courierReputation[_courierAddr] + REWARD_VALUE <= MAX_REPUTATION) {... */\n    tag_97:\n        /* \"contracts/UserManagement.sol\":2064:2093  CourierRewarded(_courierAddr) */\n      0x08e8c1956ccc9e881a3e282dbd9413856024d7a0739aa1b33049ce826924f877\n        /* \"contracts/UserManagement.sol\":2080:2092  _courierAddr */\n      dup2\n        /* \"contracts/UserManagement.sol\":2064:2093  CourierRewarded(_courierAddr) */\n      mload(0x40)\n      tag_99\n      swap2\n      swap1\n      tag_93\n      jump\t// in\n    tag_99:\n      mload(0x40)\n      dup1\n      swap2\n      sub\n      swap1\n      log1\n        /* \"contracts/UserManagement.sol\":1843:2100  function rewardCourier(address _courierAddr) external {... */\n      pop\n      jump\t// out\n        /* \"#utility.yul\":88:205   */\n    tag_101:\n        /* \"#utility.yul\":197:198   */\n      0x00\n        /* \"#utility.yul\":194:195   */\n      dup1\n        /* \"#utility.yul\":187:199   */\n      revert\n        /* \"#utility.yul\":334:460   */\n    tag_103:\n        /* \"#utility.yul\":371:378   */\n      0x00\n        /* \"#utility.yul\":411:453   */\n      0xffffffffffffffffffffffffffffffffffffffff\n        /* \"#utility.yul\":404:409   */\n      dup3\n        /* \"#utility.yul\":400:454   */\n      and\n        /* \"#utility.yul\":389:454   */\n      swap1\n      pop\n        /* \"#utility.yul\":334:460   */\n      swap2\n      swap1\n      pop\n      jump\t// out\n        /* \"#utility.yul\":466:562   */\n    tag_104:\n        /* \"#utility.yul\":503:510   */\n      0x00\n        /* \"#utility.yul\":532:556   */\n      tag_132\n        /* \"#utility.yul\":550:555   */\n      dup3\n        /* \"#utility.yul\":532:556   */\n      tag_103\n      jump\t// in\n    tag_132:\n        /* \"#utility.yul\":521:556   */\n      swap1\n      pop\n        /* \"#utility.yul\":466:562   */\n      swap2\n      swap1\n      pop\n      jump\t// out\n        /* \"#utility.yul\":568:690   */\n    tag_105:\n        /* \"#utility.yul\":641:665   */\n      tag_134\n        /* \"#utility.yul\":659:664   */\n      dup2\n        /* \"#utility.yul\":641:665   */\n      tag_104\n      jump\t// in\n    tag_134:\n        /* \"#utility.yul\":634:639   */\n      dup2\n        /* \"#utility.yul\":631:666   */\n      eq\n        /* \"#utility.yul\":621:684   */\n      tag_135\n      jumpi\n        /* \"#utility.yul\":680:681   */\n      0x00\n        /* \"#utility.yul\":677:678   */\n      dup1\n        /* \"#utility.yul\":670:682   */\n      revert\n        /* \"#utility.yul\":621:684   */\n    tag_135:\n        /* \"#utility.yul\":568:690   */\n      pop\n      jump\t// out\n        /* \"#utility.yul\":696:835   */\n    tag_106:\n        /* \"#utility.yul\":742:747   */\n      0x00\n        /* \"#utility.yul\":780:786   */\n      dup2\n        /* \"#utility.yul\":767:787   */\n      calldataload\n        /* \"#utility.yul\":758:787   */\n      swap1\n      pop\n        /* \"#utility.yul\":796:829   */\n      tag_137\n        /* \"#utility.yul\":823:828   */\n      dup2\n        /* \"#utility.yul\":796:829   */\n      tag_105\n      jump\t// in\n    tag_137:\n        /* \"#utility.yul\":696:835   */\n      swap3\n      swap2\n      pop\n      pop\n      jump\t// out\n        /* \"#utility.yul\":841:1170   */\n    tag_20:\n        /* \"#utility.yul\":900:906   */\n      0x00\n        /* \"#utility.yul\":949:951   */\n      0x20\n        /* \"#utility.yul\":937:946   */\n      dup3\n        /* \"#utility.yul\":928:935   */\n      dup5\n        /* \"#utility.yul\":924:947   */\n      sub\n        /* \"#utility.yul\":920:952   */\n      slt\n        /* \"#utility.yul\":917:1036   */\n      iszero\n      tag_139\n      jumpi\n        /* \"#utility.yul\":955:1034   */\n      tag_140\n      tag_101\n      jump\t// in\n    tag_140:\n        /* \"#utility.yul\":917:1036   */\n    tag_139:\n        /* \"#utility.yul\":1075:1076   */\n      0x00\n        /* \"#utility.yul\":1100:1153   */\n      tag_141\n        /* \"#utility.yul\":1145:1152   */\n      dup5\n        /* \"#utility.yul\":1136:1142   */\n      dup3\n        /* \"#utility.yul\":1125:1134   */\n      dup6\n        /* \"#utility.yul\":1121:1143   */\n      add\n        /* \"#utility.yul\":1100:1153   */\n      tag_106\n      jump\t// in\n    tag_141:\n        /* \"#utility.yul\":1090:1153   */\n      swap2\n      pop\n        /* \"#utility.yul\":1046:1163   */\n      pop\n        /* \"#utility.yul\":841:1170   */\n      swap3\n      swap2\n      pop\n      pop\n      jump\t// out\n        /* \"#utility.yul\":1176:1262   */\n    tag_107:\n        /* \"#utility.yul\":1211:1218   */\n      0x00\n        /* \"#utility.yul\":1251:1255   */\n      0xff\n        /* \"#utility.yul\":1244:1249   */\n      dup3\n        /* \"#utility.yul\":1240:1256   */\n      and\n        /* \"#utility.yul\":1229:1256   */\n      swap1\n      pop\n        /* \"#utility.yul\":1176:1262   */\n      swap2\n      swap1\n      pop\n      jump\t// out\n        /* \"#utility.yul\":1268:1380   */\n    tag_108:\n        /* \"#utility.yul\":1351:1373   */\n      tag_144\n        /* \"#utility.yul\":1367:1372   */\n      dup2\n        /* \"#utility.yul\":1351:1373   */\n      tag_107\n      jump\t// in\n    tag_144:\n        /* \"#utility.yul\":1346:1349   */\n      dup3\n        /* \"#utility.yul\":1339:1374   */\n      mstore\n        /* \"#utility.yul\":1268:1380   */\n      pop\n      pop\n      jump\t// out\n        /* \"#utility.yul\":1386:1600   */\n    tag_26:\n        /* \"#utility.yul\":1475:1479   */\n      0x00\n        /* \"#utility.yul\":1513:1515   */\n      0x20\n        /* \"#utility.yul\":1502:1511   */\n      dup3\n        /* \"#utility.yul\":1498:1516   */\n      add\n        /* \"#utility.yul\":1490:1516   */\n      swap1\n      pop\n        /* \"#utility.yul\":1526:1593   */\n      tag_146\n        /* \"#utility.yul\":1590:1591   */\n      0x00\n        /* \"#utility.yul\":1579:1588   */\n      dup4\n        /* \"#utility.yul\":1575:1592   */\n      add\n        /* \"#utility.yul\":1566:1572   */\n      dup5\n        /* \"#utility.yul\":1526:1593   */\n      tag_108\n      jump\t// in\n    tag_146:\n        /* \"#utility.yul\":1386:1600   */\n      swap3\n      swap2\n      pop\n      pop\n      jump\t// out\n        /* \"#utility.yul\":1606:1786   */\n    tag_70:\n        /* \"#utility.yul\":1654:1731   */\n      0x4e487b7100000000000000000000000000000000000000000000000000000000\n        /* \"#utility.yul\":1651:1652   */\n      0x00\n        /* \"#utility.yul\":1644:1732   */\n      mstore\n        /* \"#utility.yul\":1751:1755   */\n      0x21\n        /* \"#utility.yul\":1748:1749   */\n      0x04\n        /* \"#utility.yul\":1741:1756   */\n      mstore\n        /* \"#utility.yul\":1775:1779   */\n      0x24\n        /* \"#utility.yul\":1772:1773   */\n      0x00\n        /* \"#utility.yul\":1765:1780   */\n      revert\n        /* \"#utility.yul\":1792:1903   */\n    tag_109:\n        /* \"#utility.yul\":1871:1872   */\n      0x03\n        /* \"#utility.yul\":1864:1869   */\n      dup2\n        /* \"#utility.yul\":1861:1873   */\n      lt\n        /* \"#utility.yul\":1851:1897   */\n      tag_149\n      jumpi\n        /* \"#utility.yul\":1877:1895   */\n      tag_150\n      tag_70\n      jump\t// in\n    tag_150:\n        /* \"#utility.yul\":1851:1897   */\n    tag_149:\n        /* \"#utility.yul\":1792:1903   */\n      pop\n      jump\t// out\n        /* \"#utility.yul\":1909:2032   */\n    tag_110:\n        /* \"#utility.yul\":1952:1959   */\n      0x00\n        /* \"#utility.yul\":1981:1986   */\n      dup2\n        /* \"#utility.yul\":1970:1986   */\n      swap1\n      pop\n        /* \"#utility.yul\":1987:2026   */\n      tag_152\n        /* \"#utility.yul\":2020:2025   */\n      dup3\n        /* \"#utility.yul\":1987:2026   */\n      tag_109\n      jump\t// in\n    tag_152:\n        /* \"#utility.yul\":1909:2032   */\n      swap2\n      swap1\n      pop\n      jump\t// out\n        /* \"#utility.yul\":2038:2161   */\n    tag_111:\n        /* \"#utility.yul\":2092:2101   */\n      0x00\n        /* \"#utility.yul\":2125:2155   */\n      tag_154\n        /* \"#utility.yul\":2149:2154   */\n      dup3\n        /* \"#utility.yul\":2125:2155   */\n      tag_110\n      jump\t// in\n    tag_154:\n        /* \"#utility.yul\":2112:2155   */\n      swap1\n      pop\n        /* \"#utility.yul\":2038:2161   */\n      swap2\n      swap1\n      pop\n      jump\t// out\n        /* \"#utility.yul\":2167:2306   */\n    tag_112:\n        /* \"#utility.yul\":2258:2299   */\n      tag_156\n        /* \"#utility.yul\":2293:2298   */\n      dup2\n        /* \"#utility.yul\":2258:2299   */\n      tag_111\n      jump\t// in\n    tag_156:\n        /* \"#utility.yul\":2253:2256   */\n      dup3\n        /* \"#utility.yul\":2246:2300   */\n      mstore\n        /* \"#utility.yul\":2167:2306   */\n      pop\n      pop\n      jump\t// out\n        /* \"#utility.yul\":2312:2542   */\n    tag_43:\n        /* \"#utility.yul\":2409:2413   */\n      0x00\n        /* \"#utility.yul\":2447:2449   */\n      0x20\n        /* \"#utility.yul\":2436:2445   */\n      dup3\n        /* \"#utility.yul\":2432:2450   */\n      add\n        /* \"#utility.yul\":2424:2450   */\n      swap1\n      pop\n        /* \"#utility.yul\":2460:2535   */\n      tag_158\n        /* \"#utility.yul\":2532:2533   */\n      0x00\n        /* \"#utility.yul\":2521:2530   */\n      dup4\n        /* \"#utility.yul\":2517:2534   */\n      add\n        /* \"#utility.yul\":2508:2514   */\n      dup5\n        /* \"#utility.yul\":2460:2535   */\n      tag_112\n      jump\t// in\n    tag_158:\n        /* \"#utility.yul\":2312:2542   */\n      swap3\n      swap2\n      pop\n      pop\n      jump\t// out\n        /* \"#utility.yul\":2548:2638   */\n    tag_113:\n        /* \"#utility.yul\":2582:2589   */\n      0x00\n        /* \"#utility.yul\":2625:2630   */\n      dup2\n        /* \"#utility.yul\":2618:2631   */\n      iszero\n        /* \"#utility.yul\":2611:2632   */\n      iszero\n        /* \"#utility.yul\":2600:2632   */\n      swap1\n      pop\n        /* \"#utility.yul\":2548:2638   */\n      swap2\n      swap1\n      pop\n      jump\t// out\n        /* \"#utility.yul\":2644:2753   */\n    tag_114:\n        /* \"#utility.yul\":2725:2746   */\n      tag_161\n        /* \"#utility.yul\":2740:2745   */\n      dup2\n        /* \"#utility.yul\":2725:2746   */\n      tag_113\n      jump\t// in\n    tag_161:\n        /* \"#utility.yul\":2720:2723   */\n      dup3\n        /* \"#utility.yul\":2713:2747   */\n      mstore\n        /* \"#utility.yul\":2644:2753   */\n      pop\n      pop\n      jump\t// out\n        /* \"#utility.yul\":2759:2969   */\n    tag_48:\n        /* \"#utility.yul\":2846:2850   */\n      0x00\n        /* \"#utility.yul\":2884:2886   */\n      0x20\n        /* \"#utility.yul\":2873:2882   */\n      dup3\n        /* \"#utility.yul\":2869:2887   */\n      add\n        /* \"#utility.yul\":2861:2887   */\n      swap1\n      pop\n        /* \"#utility.yul\":2897:2962   */\n      tag_163\n        /* \"#utility.yul\":2959:2960   */\n      0x00\n        /* \"#utility.yul\":2948:2957   */\n      dup4\n        /* \"#utility.yul\":2944:2961   */\n      add\n        /* \"#utility.yul\":2935:2941   */\n      dup5\n        /* \"#utility.yul\":2897:2962   */\n      tag_114\n      jump\t// in\n    tag_163:\n        /* \"#utility.yul\":2759:2969   */\n      swap3\n      swap2\n      pop\n      pop\n      jump\t// out\n        /* \"#utility.yul\":2975:3144   */\n    tag_115:\n        /* \"#utility.yul\":3059:3070   */\n      0x00\n        /* \"#utility.yul\":3093:3099   */\n      dup3\n        /* \"#utility.yul\":3088:3091   */\n      dup3\n        /* \"#utility.yul\":3081:3100   */\n      mstore\n        /* \"#utility.yul\":3133:3137   */\n      0x20\n        /* \"#utility.yul\":3128:3131   */\n      dup3\n        /* \"#utility.yul\":3124:3138   */\n      add\n        /* \"#utility.yul\":3109:3138   */\n      swap1\n      pop\n        /* \"#utility.yul\":2975:3144   */\n      swap3\n      swap2\n      pop\n      pop\n      jump\t// out\n        /* \"#utility.yul\":3150:3324   */\n    tag_116:\n        /* \"#utility.yul\":3290:3316   */\n      0x5573657220616c72656164792072656769737465726564210000000000000000\n        /* \"#utility.yul\":3286:3287   */\n      0x00\n        /* \"#utility.yul\":3278:3284   */\n      dup3\n        /* \"#utility.yul\":3274:3288   */\n      add\n        /* \"#utility.yul\":3267:3317   */\n      mstore\n        /* \"#utility.yul\":3150:3324   */\n      pop\n      jump\t// out\n        /* \"#utility.yul\":3330:3696   */\n    tag_117:\n        /* \"#utility.yul\":3472:3475   */\n      0x00\n        /* \"#utility.yul\":3493:3560   */\n      tag_167\n        /* \"#utility.yul\":3557:3559   */\n      0x18\n        /* \"#utility.yul\":3552:3555   */\n      dup4\n        /* \"#utility.yul\":3493:3560   */\n      tag_115\n      jump\t// in\n    tag_167:\n        /* \"#utility.yul\":3486:3560   */\n      swap2\n      pop\n        /* \"#utility.yul\":3569:3662   */\n      tag_168\n        /* \"#utility.yul\":3658:3661   */\n      dup3\n        /* \"#utility.yul\":3569:3662   */\n      tag_116\n      jump\t// in\n    tag_168:\n        /* \"#utility.yul\":3687:3689   */\n      0x20\n        /* \"#utility.yul\":3682:3685   */\n      dup3\n        /* \"#utility.yul\":3678:3690   */\n      add\n        /* \"#utility.yul\":3671:3690   */\n      swap1\n      pop\n        /* \"#utility.yul\":3330:3696   */\n      swap2\n      swap1\n      pop\n      jump\t// out\n        /* \"#utility.yul\":3702:4121   */\n    tag_67:\n        /* \"#utility.yul\":3868:3872   */\n      0x00\n        /* \"#utility.yul\":3906:3908   */\n      0x20\n        /* \"#utility.yul\":3895:3904   */\n      dup3\n        /* \"#utility.yul\":3891:3909   */\n      add\n        /* \"#utility.yul\":3883:3909   */\n      swap1\n      pop\n        /* \"#utility.yul\":3955:3964   */\n      dup2\n        /* \"#utility.yul\":3949:3953   */\n      dup2\n        /* \"#utility.yul\":3945:3965   */\n      sub\n        /* \"#utility.yul\":3941:3942   */\n      0x00\n        /* \"#utility.yul\":3930:3939   */\n      dup4\n        /* \"#utility.yul\":3926:3943   */\n      add\n        /* \"#utility.yul\":3919:3966   */\n      mstore\n        /* \"#utility.yul\":3983:4114   */\n      tag_170\n        /* \"#utility.yul\":4109:4113   */\n      dup2\n        /* \"#utility.yul\":3983:4114   */\n      tag_117\n      jump\t// in\n    tag_170:\n        /* \"#utility.yul\":3975:4114   */\n      swap1\n      pop\n        /* \"#utility.yul\":3702:4121   */\n      swap2\n      swap1\n      pop\n      jump\t// out\n        /* \"#utility.yul\":4127:4245   */\n    tag_118:\n        /* \"#utility.yul\":4214:4238   */\n      tag_172\n        /* \"#utility.yul\":4232:4237   */\n      dup2\n        /* \"#utility.yul\":4214:4238   */\n      tag_104\n      jump\t// in\n    tag_172:\n        /* \"#utility.yul\":4209:4212   */\n      dup3\n        /* \"#utility.yul\":4202:4239   */\n      mstore\n        /* \"#utility.yul\":4127:4245   */\n      pop\n      pop\n      jump\t// out\n        /* \"#utility.yul\":4251:4423   */\n    tag_119:\n        /* \"#utility.yul\":4391:4415   */\n      0x5265676973746572656420617320526563656976657200000000000000000000\n        /* \"#utility.yul\":4387:4388   */\n      0x00\n        /* \"#utility.yul\":4379:4385   */\n      dup3\n        /* \"#utility.yul\":4375:4389   */\n      add\n        /* \"#utility.yul\":4368:4416   */\n      mstore\n        /* \"#utility.yul\":4251:4423   */\n      pop\n      jump\t// out\n        /* \"#utility.yul\":4429:4795   */\n    tag_120:\n        /* \"#utility.yul\":4571:4574   */\n      0x00\n        /* \"#utility.yul\":4592:4659   */\n      tag_175\n        /* \"#utility.yul\":4656:4658   */\n      0x16\n        /* \"#utility.yul\":4651:4654   */\n      dup4\n        /* \"#utility.yul\":4592:4659   */\n      tag_115\n      jump\t// in\n    tag_175:\n        /* \"#utility.yul\":4585:4659   */\n      swap2\n      pop\n        /* \"#utility.yul\":4668:4761   */\n      tag_176\n        /* \"#utility.yul\":4757:4760   */\n      dup3\n        /* \"#utility.yul\":4668:4761   */\n      tag_119\n      jump\t// in\n    tag_176:\n        /* \"#utility.yul\":4786:4788   */\n      0x20\n        /* \"#utility.yul\":4781:4784   */\n      dup3\n        /* \"#utility.yul\":4777:4789   */\n      add\n        /* \"#utility.yul\":4770:4789   */\n      swap1\n      pop\n        /* \"#utility.yul\":4429:4795   */\n      swap2\n      swap1\n      pop\n      jump\t// out\n        /* \"#utility.yul\":4801:5448   */\n    tag_72:\n        /* \"#utility.yul\":5027:5031   */\n      0x00\n        /* \"#utility.yul\":5065:5067   */\n      0x60\n        /* \"#utility.yul\":5054:5063   */\n      dup3\n        /* \"#utility.yul\":5050:5068   */\n      add\n        /* \"#utility.yul\":5042:5068   */\n      swap1\n      pop\n        /* \"#utility.yul\":5078:5149   */\n      tag_178\n        /* \"#utility.yul\":5146:5147   */\n      0x00\n        /* \"#utility.yul\":5135:5144   */\n      dup4\n        /* \"#utility.yul\":5131:5148   */\n      add\n        /* \"#utility.yul\":5122:5128   */\n      dup6\n        /* \"#utility.yul\":5078:5149   */\n      tag_118\n      jump\t// in\n    tag_178:\n        /* \"#utility.yul\":5159:5235   */\n      tag_179\n        /* \"#utility.yul\":5231:5233   */\n      0x20\n        /* \"#utility.yul\":5220:5229   */\n      dup4\n        /* \"#utility.yul\":5216:5234   */\n      add\n        /* \"#utility.yul\":5207:5213   */\n      dup5\n        /* \"#utility.yul\":5159:5235   */\n      tag_112\n      jump\t// in\n    tag_179:\n        /* \"#utility.yul\":5282:5291   */\n      dup2\n        /* \"#utility.yul\":5276:5280   */\n      dup2\n        /* \"#utility.yul\":5272:5292   */\n      sub\n        /* \"#utility.yul\":5267:5269   */\n      0x40\n        /* \"#utility.yul\":5256:5265   */\n      dup4\n        /* \"#utility.yul\":5252:5270   */\n      add\n        /* \"#utility.yul\":5245:5293   */\n      mstore\n        /* \"#utility.yul\":5310:5441   */\n      tag_180\n        /* \"#utility.yul\":5436:5440   */\n      dup2\n        /* \"#utility.yul\":5310:5441   */\n      tag_120\n      jump\t// in\n    tag_180:\n        /* \"#utility.yul\":5302:5441   */\n      swap1\n      pop\n        /* \"#utility.yul\":4801:5448   */\n      swap4\n      swap3\n      pop\n      pop\n      pop\n      jump\t// out\n        /* \"#utility.yul\":5454:5625   */\n    tag_121:\n        /* \"#utility.yul\":5594:5617   */\n      0x5265676973746572656420617320436f75726965720000000000000000000000\n        /* \"#utility.yul\":5590:5591   */\n      0x00\n        /* \"#utility.yul\":5582:5588   */\n      dup3\n        /* \"#utility.yul\":5578:5592   */\n      add\n        /* \"#utility.yul\":5571:5618   */\n      mstore\n        /* \"#utility.yul\":5454:5625   */\n      pop\n      jump\t// out\n        /* \"#utility.yul\":5631:5997   */\n    tag_122:\n        /* \"#utility.yul\":5773:5776   */\n      0x00\n        /* \"#utility.yul\":5794:5861   */\n      tag_183\n        /* \"#utility.yul\":5858:5860   */\n      0x15\n        /* \"#utility.yul\":5853:5856   */\n      dup4\n        /* \"#utility.yul\":5794:5861   */\n      tag_115\n      jump\t// in\n    tag_183:\n        /* \"#utility.yul\":5787:5861   */\n      swap2\n      pop\n        /* \"#utility.yul\":5870:5963   */\n      tag_184\n        /* \"#utility.yul\":5959:5962   */\n      dup3\n        /* \"#utility.yul\":5870:5963   */\n      tag_121\n      jump\t// in\n    tag_184:\n        /* \"#utility.yul\":5988:5990   */\n      0x20\n        /* \"#utility.yul\":5983:5986   */\n      dup3\n        /* \"#utility.yul\":5979:5991   */\n      add\n        /* \"#utility.yul\":5972:5991   */\n      swap1\n      pop\n        /* \"#utility.yul\":5631:5997   */\n      swap2\n      swap1\n      pop\n      jump\t// out\n        /* \"#utility.yul\":6003:6650   */\n    tag_79:\n        /* \"#utility.yul\":6229:6233   */\n      0x00\n        /* \"#utility.yul\":6267:6269   */\n      0x60\n        /* \"#utility.yul\":6256:6265   */\n      dup3\n        /* \"#utility.yul\":6252:6270   */\n      add\n        /* \"#utility.yul\":6244:6270   */\n      swap1\n      pop\n        /* \"#utility.yul\":6280:6351   */\n      tag_186\n        /* \"#utility.yul\":6348:6349   */\n      0x00\n        /* \"#utility.yul\":6337:6346   */\n      dup4\n        /* \"#utility.yul\":6333:6350   */\n      add\n        /* \"#utility.yul\":6324:6330   */\n      dup6\n        /* \"#utility.yul\":6280:6351   */\n      tag_118\n      jump\t// in\n    tag_186:\n        /* \"#utility.yul\":6361:6437   */\n      tag_187\n        /* \"#utility.yul\":6433:6435   */\n      0x20\n        /* \"#utility.yul\":6422:6431   */\n      dup4\n        /* \"#utility.yul\":6418:6436   */\n      add\n        /* \"#utility.yul\":6409:6415   */\n      dup5\n        /* \"#utility.yul\":6361:6437   */\n      tag_112\n      jump\t// in\n    tag_187:\n        /* \"#utility.yul\":6484:6493   */\n      dup2\n        /* \"#utility.yul\":6478:6482   */\n      dup2\n        /* \"#utility.yul\":6474:6494   */\n      sub\n        /* \"#utility.yul\":6469:6471   */\n      0x40\n        /* \"#utility.yul\":6458:6467   */\n      dup4\n        /* \"#utility.yul\":6454:6472   */\n      add\n        /* \"#utility.yul\":6447:6495   */\n      mstore\n        /* \"#utility.yul\":6512:6643   */\n      tag_188\n        /* \"#utility.yul\":6638:6642   */\n      dup2\n        /* \"#utility.yul\":6512:6643   */\n      tag_122\n      jump\t// in\n    tag_188:\n        /* \"#utility.yul\":6504:6643   */\n      swap1\n      pop\n        /* \"#utility.yul\":6003:6650   */\n      swap4\n      swap3\n      pop\n      pop\n      pop\n      jump\t// out\n        /* \"#utility.yul\":6656:6827   */\n    tag_123:\n        /* \"#utility.yul\":6796:6819   */\n      0x526567697374657265642061732053656e6465722e0000000000000000000000\n        /* \"#utility.yul\":6792:6793   */\n      0x00\n        /* \"#utility.yul\":6784:6790   */\n      dup3\n        /* \"#utility.yul\":6780:6794   */\n      add\n        /* \"#utility.yul\":6773:6820   */\n      mstore\n        /* \"#utility.yul\":6656:6827   */\n      pop\n      jump\t// out\n        /* \"#utility.yul\":6833:7199   */\n    tag_124:\n        /* \"#utility.yul\":6975:6978   */\n      0x00\n        /* \"#utility.yul\":6996:7063   */\n      tag_191\n        /* \"#utility.yul\":7060:7062   */\n      0x15\n        /* \"#utility.yul\":7055:7058   */\n      dup4\n        /* \"#utility.yul\":6996:7063   */\n      tag_115\n      jump\t// in\n    tag_191:\n        /* \"#utility.yul\":6989:7063   */\n      swap2\n      pop\n        /* \"#utility.yul\":7072:7165   */\n      tag_192\n        /* \"#utility.yul\":7161:7164   */\n      dup3\n        /* \"#utility.yul\":7072:7165   */\n      tag_123\n      jump\t// in\n    tag_192:\n        /* \"#utility.yul\":7190:7192   */\n      0x20\n        /* \"#utility.yul\":7185:7188   */\n      dup3\n        /* \"#utility.yul\":7181:7193   */\n      add\n        /* \"#utility.yul\":7174:7193   */\n      swap1\n      pop\n        /* \"#utility.yul\":6833:7199   */\n      swap2\n      swap1\n      pop\n      jump\t// out\n        /* \"#utility.yul\":7205:7852   */\n    tag_86:\n        /* \"#utility.yul\":7431:7435   */\n      0x00\n        /* \"#utility.yul\":7469:7471   */\n      0x60\n        /* \"#utility.yul\":7458:7467   */\n      dup3\n        /* \"#utility.yul\":7454:7472   */\n      add\n        /* \"#utility.yul\":7446:7472   */\n      swap1\n      pop\n        /* \"#utility.yul\":7482:7553   */\n      tag_194\n        /* \"#utility.yul\":7550:7551   */\n      0x00\n        /* \"#utility.yul\":7539:7548   */\n      dup4\n        /* \"#utility.yul\":7535:7552   */\n      add\n        /* \"#utility.yul\":7526:7532   */\n      dup6\n        /* \"#utility.yul\":7482:7553   */\n      tag_118\n      jump\t// in\n    tag_194:\n        /* \"#utility.yul\":7563:7639   */\n      tag_195\n        /* \"#utility.yul\":7635:7637   */\n      0x20\n        /* \"#utility.yul\":7624:7633   */\n      dup4\n        /* \"#utility.yul\":7620:7638   */\n      add\n        /* \"#utility.yul\":7611:7617   */\n      dup5\n        /* \"#utility.yul\":7563:7639   */\n      tag_112\n      jump\t// in\n    tag_195:\n        /* \"#utility.yul\":7686:7695   */\n      dup2\n        /* \"#utility.yul\":7680:7684   */\n      dup2\n        /* \"#utility.yul\":7676:7696   */\n      sub\n        /* \"#utility.yul\":7671:7673   */\n      0x40\n        /* \"#utility.yul\":7660:7669   */\n      dup4\n        /* \"#utility.yul\":7656:7674   */\n      add\n        /* \"#utility.yul\":7649:7697   */\n      mstore\n        /* \"#utility.yul\":7714:7845   */\n      tag_196\n        /* \"#utility.yul\":7840:7844   */\n      dup2\n        /* \"#utility.yul\":7714:7845   */\n      tag_124\n      jump\t// in\n    tag_196:\n        /* \"#utility.yul\":7706:7845   */\n      swap1\n      pop\n        /* \"#utility.yul\":7205:7852   */\n      swap4\n      swap3\n      pop\n      pop\n      pop\n      jump\t// out\n        /* \"#utility.yul\":7858:8038   */\n    tag_125:\n        /* \"#utility.yul\":7906:7983   */\n      0x4e487b7100000000000000000000000000000000000000000000000000000000\n        /* \"#utility.yul\":7903:7904   */\n      0x00\n        /* \"#utility.yul\":7896:7984   */\n      mstore\n        /* \"#utility.yul\":8003:8007   */\n      0x11\n        /* \"#utility.yul\":8000:8001   */\n      0x04\n        /* \"#utility.yul\":7993:8008   */\n      mstore\n        /* \"#utility.yul\":8027:8031   */\n      0x24\n        /* \"#utility.yul\":8024:8025   */\n      0x00\n        /* \"#utility.yul\":8017:8032   */\n      revert\n        /* \"#utility.yul\":8044:8235   */\n    tag_89:\n        /* \"#utility.yul\":8082:8086   */\n      0x00\n        /* \"#utility.yul\":8102:8120   */\n      tag_199\n        /* \"#utility.yul\":8118:8119   */\n      dup3\n        /* \"#utility.yul\":8102:8120   */\n      tag_107\n      jump\t// in\n    tag_199:\n        /* \"#utility.yul\":8097:8120   */\n      swap2\n      pop\n        /* \"#utility.yul\":8134:8152   */\n      tag_200\n        /* \"#utility.yul\":8150:8151   */\n      dup4\n        /* \"#utility.yul\":8134:8152   */\n      tag_107\n      jump\t// in\n    tag_200:\n        /* \"#utility.yul\":8129:8152   */\n      swap3\n      pop\n        /* \"#utility.yul\":8176:8177   */\n      dup3\n        /* \"#utility.yul\":8173:8174   */\n      dup3\n        /* \"#utility.yul\":8169:8178   */\n      sub\n        /* \"#utility.yul\":8161:8178   */\n      swap1\n      pop\n        /* \"#utility.yul\":8200:8204   */\n      0xff\n        /* \"#utility.yul\":8194:8198   */\n      dup2\n        /* \"#utility.yul\":8191:8205   */\n      gt\n        /* \"#utility.yul\":8188:8228   */\n      iszero\n      tag_201\n      jumpi\n        /* \"#utility.yul\":8208:8226   */\n      tag_202\n      tag_125\n      jump\t// in\n    tag_202:\n        /* \"#utility.yul\":8188:8228   */\n    tag_201:\n        /* \"#utility.yul\":8044:8235   */\n      swap3\n      swap2\n      pop\n      pop\n      jump\t// out\n        /* \"#utility.yul\":8241:8463   */\n    tag_93:\n        /* \"#utility.yul\":8334:8338   */\n      0x00\n        /* \"#utility.yul\":8372:8374   */\n      0x20\n        /* \"#utility.yul\":8361:8370   */\n      dup3\n        /* \"#utility.yul\":8357:8375   */\n      add\n        /* \"#utility.yul\":8349:8375   */\n      swap1\n      pop\n        /* \"#utility.yul\":8385:8456   */\n      tag_204\n        /* \"#utility.yul\":8453:8454   */\n      0x00\n        /* \"#utility.yul\":8442:8451   */\n      dup4\n        /* \"#utility.yul\":8438:8455   */\n      add\n        /* \"#utility.yul\":8429:8435   */\n      dup5\n        /* \"#utility.yul\":8385:8456   */\n      tag_118\n      jump\t// in\n    tag_204:\n        /* \"#utility.yul\":8241:8463   */\n      swap3\n      swap2\n      pop\n      pop\n      jump\t// out\n        /* \"#utility.yul\":8469:8657   */\n    tag_96:\n        /* \"#utility.yul\":8507:8510   */\n      0x00\n        /* \"#utility.yul\":8526:8544   */\n      tag_206\n        /* \"#utility.yul\":8542:8543   */\n      dup3\n        /* \"#utility.yul\":8526:8544   */\n      tag_107\n      jump\t// in\n    tag_206:\n        /* \"#utility.yul\":8521:8544   */\n      swap2\n      pop\n        /* \"#utility.yul\":8558:8576   */\n      tag_207\n        /* \"#utility.yul\":8574:8575   */\n      dup4\n        /* \"#utility.yul\":8558:8576   */\n      tag_107\n      jump\t// in\n    tag_207:\n        /* \"#utility.yul\":8553:8576   */\n      swap3\n      pop\n        /* \"#utility.yul\":8599:8600   */\n      dup3\n        /* \"#utility.yul\":8596:8597   */\n      dup3\n        /* \"#utility.yul\":8592:8601   */\n      add\n        /* \"#utility.yul\":8585:8601   */\n      swap1\n      pop\n        /* \"#utility.yul\":8622:8626   */\n      0xff\n        /* \"#utility.yul\":8617:8620   */\n      dup2\n        /* \"#utility.yul\":8614:8627   */\n      gt\n        /* \"#utility.yul\":8611:8650   */\n      iszero\n      tag_208\n      jumpi\n        /* \"#utility.yul\":8630:8648   */\n      tag_209\n      tag_125\n      jump\t// in\n    tag_209:\n        /* \"#utility.yul\":8611:8650   */\n    tag_208:\n        /* \"#utility.yul\":8469:8657   */\n      swap3\n      swap2\n      pop\n      pop\n      jump\t// out\n\n    auxdata: 0xa2646970667358221220cf7825238b503fa69afe3db5d9235dc6c6c24be7a593fbe1827fb8296c48284b64736f6c634300081a0033\n}\n",
				"bytecode": {
					"linkReferences": {},
					"object": "6080604052348015600e575f80fd5b50610e528061001c5f395ff3fe608060405234801561000f575f80fd5b50600436106100cd575f3560e01c806374d5e1001161008a578063d213c0f211610064578063d213c0f214610211578063fb357d701461022f578063fc92503f1461024b578063fef3d25314610267576100cd565b806374d5e10014610193578063c3c5a547146101c3578063cb6baeb8146101f3576100cd565b806320b9e087146100d1578063481950b8146100ed578063524ecda41461011d5780636833ebcf1461013b578063697c60451461015757806369ce34ab14610175575b5f80fd5b6100eb60048036038101906100e69190610a3d565b610283565b005b61010760048036038101906101029190610a3d565b610402565b6040516101149190610a83565b60405180910390f35b61012561041f565b6040516101329190610a83565b60405180910390f35b61015560048036038101906101509190610a3d565b610424565b005b61015f6105f9565b60405161016c9190610a83565b60405180910390f35b61017d6105fd565b60405161018a9190610a83565b60405180910390f35b6101ad60048036038101906101a89190610a3d565b610602565b6040516101ba9190610b0f565b60405180910390f35b6101dd60048036038101906101d89190610a3d565b61061e565b6040516101ea9190610b42565b60405180910390f35b6101fb61063b565b6040516102089190610a83565b60405180910390f35b610219610640565b6040516102269190610a83565b60405180910390f35b61024960048036038101906102449190610a3d565b610645565b005b61026560048036038101906102609190610a3d565b6107c2565b005b610281600480360381019061027c9190610a3d565b6108d0565b005b60015f8273ffffffffffffffffffffffffffffffffffffffff1673ffffffffffffffffffffffffffffffffffffffff1681526020019081526020015f205f9054906101000a900460ff161561030d576040517f08c379a000000000000000000000000000000000000000000000000000000000815260040161030490610bb5565b60405180910390fd5b60025f808373ffffffffffffffffffffffffffffffffffffffff1673ffffffffffffffffffffffffffffffffffffffff1681526020019081526020015f205f6101000a81548160ff0219169083600281111561036c5761036b610a9c565b5b02179055506001805f8373ffffffffffffffffffffffffffffffffffffffff1673ffffffffffffffffffffffffffffffffffffffff1681526020019081526020015f205f6101000a81548160ff0219169083151502179055507f04221ffa167b8d0a33647e46ee4f6728f4fe3651e4d56715ed0941b12046147b8160026040516103f7929190610c2c565b60405180910390a150565b6002602052805f5260405f205f915054906101000a900460ff1681565b600581565b60015f8273ffffffffffffffffffffffffffffffffffffffff1673ffffffffffffffffffffffffffffffffffffffff1681526020019081526020015f205f9054906101000a900460ff16156104ae576040517f08c379a00000000000000000000000000000000000000000000000000000000081526004016104a590610bb5565b60405180910390fd5b60015f808373ffffffffffffffffffffffffffffffffffffffff1673ffffffffffffffffffffffffffffffffffffffff1681526020019081526020015f205f6101000a81548160ff0219169083600281111561050d5761050c610a9c565b5b02179055506001805f8373ffffffffffffffffffffffffffffffffffffffff1673ffffffffffffffffffffffffffffffffffffffff1681526020019081526020015f205f6101000a81548160ff021916908315150217905550603260025f8373ffffffffffffffffffffffffffffffffffffffff1673ffffffffffffffffffffffffffffffffffffffff1681526020019081526020015f205f6101000a81548160ff021916908360ff1602179055507f04221ffa167b8d0a33647e46ee4f6728f4fe3651e4d56715ed0941b12046147b8160016040516105ee929190610cb0565b60405180910390a150565b5f81565b603281565b5f602052805f5260405f205f915054906101000a900460ff1681565b6001602052805f5260405f205f915054906101000a900460ff1681565b600a81565b609681565b60015f8273ffffffffffffffffffffffffffffffffffffffff1673ffffffffffffffffffffffffffffffffffffffff1681526020019081526020015f205f9054906101000a900460ff16156106cf576040517f08c379a00000000000000000000000000000000000000000000000000000000081526004016106c690610bb5565b60405180910390fd5b5f805f8373ffffffffffffffffffffffffffffffffffffffff1673ffffffffffffffffffffffffffffffffffffffff1681526020019081526020015f205f6101000a81548160ff0219169083600281111561072d5761072c610a9c565b5b02179055506001805f8373ffffffffffffffffffffffffffffffffffffffff1673ffffffffffffffffffffffffffffffffffffffff1681526020019081526020015f205f6101000a81548160ff0219169083151502179055507f04221ffa167b8d0a33647e46ee4f6728f4fe3651e4d56715ed0941b12046147b815f6040516107b7929190610d34565b60405180910390a150565b5f60ff16600a60025f8473ffffffffffffffffffffffffffffffffffffffff1673ffffffffffffffffffffffffffffffffffffffff1681526020019081526020015f205f9054906101000a900460ff1661081c9190610d9b565b60ff161061089657600a60025f8373ffffffffffffffffffffffffffffffffffffffff1673ffffffffffffffffffffffffffffffffffffffff1681526020019081526020015f205f8282829054906101000a900460ff1661087d9190610d9b565b92506101000a81548160ff021916908360ff1602179055505b7f446103b2780ad05f3fe19cd37f39e93e452c1947fe60e508b915815f155b7d29816040516108c59190610dcf565b60405180910390a150565b609660ff16600560025f8473ffffffffffffffffffffffffffffffffffffffff1673ffffffffffffffffffffffffffffffffffffffff1681526020019081526020015f205f9054906101000a900460ff1661092b9190610de8565b60ff16116109a557600560025f8373ffffffffffffffffffffffffffffffffffffffff1673ffffffffffffffffffffffffffffffffffffffff1681526020019081526020015f205f8282829054906101000a900460ff1661098c9190610de8565b92506101000a81548160ff021916908360ff1602179055505b7f08e8c1956ccc9e881a3e282dbd9413856024d7a0739aa1b33049ce826924f877816040516109d49190610dcf565b60405180910390a150565b5f80fd5b5f73ffffffffffffffffffffffffffffffffffffffff82169050919050565b5f610a0c826109e3565b9050919050565b610a1c81610a02565b8114610a26575f80fd5b50565b5f81359050610a3781610a13565b92915050565b5f60208284031215610a5257610a516109df565b5b5f610a5f84828501610a29565b91505092915050565b5f60ff82169050919050565b610a7d81610a68565b82525050565b5f602082019050610a965f830184610a74565b92915050565b7f4e487b71000000000000000000000000000000000000000000000000000000005f52602160045260245ffd5b60038110610ada57610ad9610a9c565b5b50565b5f819050610aea82610ac9565b919050565b5f610af982610add565b9050919050565b610b0981610aef565b82525050565b5f602082019050610b225f830184610b00565b92915050565b5f8115159050919050565b610b3c81610b28565b82525050565b5f602082019050610b555f830184610b33565b92915050565b5f82825260208201905092915050565b7f5573657220616c726561647920726567697374657265642100000000000000005f82015250565b5f610b9f601883610b5b565b9150610baa82610b6b565b602082019050919050565b5f6020820190508181035f830152610bcc81610b93565b9050919050565b610bdc81610a02565b82525050565b7f52656769737465726564206173205265636569766572000000000000000000005f82015250565b5f610c16601683610b5b565b9150610c2182610be2565b602082019050919050565b5f606082019050610c3f5f830185610bd3565b610c4c6020830184610b00565b8181036040830152610c5d81610c0a565b90509392505050565b7f5265676973746572656420617320436f757269657200000000000000000000005f82015250565b5f610c9a601583610b5b565b9150610ca582610c66565b602082019050919050565b5f606082019050610cc35f830185610bd3565b610cd06020830184610b00565b8181036040830152610ce181610c8e565b90509392505050565b7f526567697374657265642061732053656e6465722e00000000000000000000005f82015250565b5f610d1e601583610b5b565b9150610d2982610cea565b602082019050919050565b5f606082019050610d475f830185610bd3565b610d546020830184610b00565b8181036040830152610d6581610d12565b90509392505050565b7f4e487b71000000000000000000000000000000000000000000000000000000005f52601160045260245ffd5b5f610da582610a68565b9150610db083610a68565b9250828203905060ff811115610dc957610dc8610d6e565b5b92915050565b5f602082019050610de25f830184610bd3565b92915050565b5f610df282610a68565b9150610dfd83610a68565b9250828201905060ff811115610e1657610e15610d6e565b5b9291505056fea2646970667358221220cf7825238b503fa69afe3db5d9235dc6c6c24be7a593fbe1827fb8296c48284b64736f6c634300081a0033",
					"opcodes": "PUSH1 0x80 PUSH1 0x40 MSTORE CALLVALUE DUP1 ISZERO PUSH1 0xE JUMPI PUSH0 DUP1 REVERT JUMPDEST POP PUSH2 0xE52 DUP1 PUSH2 0x1C PUSH0 CODECOPY PUSH0 RETURN INVALID PUSH1 0x80 PUSH1 0x40 MSTORE CALLVALUE DUP1 ISZERO PUSH2 0xF JUMPI PUSH0 DUP1 REVERT JUMPDEST POP PUSH1 0x4 CALLDATASIZE LT PUSH2 0xCD JUMPI PUSH0 CALLDATALOAD PUSH1 0xE0 SHR DUP1 PUSH4 0x74D5E100 GT PUSH2 0x8A JUMPI DUP1 PUSH4 0xD213C0F2 GT PUSH2 0x64 JUMPI DUP1 PUSH4 0xD213C0F2 EQ PUSH2 0x211 JUMPI DUP1 PUSH4 0xFB357D70 EQ PUSH2 0x22F JUMPI DUP1 PUSH4 0xFC92503F EQ PUSH2 0x24B JUMPI DUP1 PUSH4 0xFEF3D253 EQ PUSH2 0x267 JUMPI PUSH2 0xCD JUMP JUMPDEST DUP1 PUSH4 0x74D5E100 EQ PUSH2 0x193 JUMPI DUP1 PUSH4 0xC3C5A547 EQ PUSH2 0x1C3 JUMPI DUP1 PUSH4 0xCB6BAEB8 EQ PUSH2 0x1F3 JUMPI PUSH2 0xCD JUMP JUMPDEST DUP1 PUSH4 0x20B9E087 EQ PUSH2 0xD1 JUMPI DUP1 PUSH4 0x481950B8 EQ PUSH2 0xED JUMPI DUP1 PUSH4 0x524ECDA4 EQ PUSH2 0x11D JUMPI DUP1 PUSH4 0x6833EBCF EQ PUSH2 0x13B JUMPI DUP1 PUSH4 0x697C6045 EQ PUSH2 0x157 JUMPI DUP1 PUSH4 0x69CE34AB EQ PUSH2 0x175 JUMPI JUMPDEST PUSH0 DUP1 REVERT JUMPDEST PUSH2 0xEB PUSH1 0x4 DUP1 CALLDATASIZE SUB DUP2 ADD SWAP1 PUSH2 0xE6 SWAP2 SWAP1 PUSH2 0xA3D JUMP JUMPDEST PUSH2 0x283 JUMP JUMPDEST STOP JUMPDEST PUSH2 0x107 PUSH1 0x4 DUP1 CALLDATASIZE SUB DUP2 ADD SWAP1 PUSH2 0x102 SWAP2 SWAP1 PUSH2 0xA3D JUMP JUMPDEST PUSH2 0x402 JUMP JUMPDEST PUSH1 0x40 MLOAD PUSH2 0x114 SWAP2 SWAP1 PUSH2 0xA83 JUMP JUMPDEST PUSH1 0x40 MLOAD DUP1 SWAP2 SUB SWAP1 RETURN JUMPDEST PUSH2 0x125 PUSH2 0x41F JUMP JUMPDEST PUSH1 0x40 MLOAD PUSH2 0x132 SWAP2 SWAP1 PUSH2 0xA83 JUMP JUMPDEST PUSH1 0x40 MLOAD DUP1 SWAP2 SUB SWAP1 RETURN JUMPDEST PUSH2 0x155 PUSH1 0x4 DUP1 CALLDATASIZE SUB DUP2 ADD SWAP1 PUSH2 0x150 SWAP2 SWAP1 PUSH2 0xA3D JUMP JUMPDEST PUSH2 0x424 JUMP JUMPDEST STOP JUMPDEST PUSH2 0x15F PUSH2 0x5F9 JUMP JUMPDEST PUSH1 0x40 MLOAD PUSH2 0x16C SWAP2 SWAP1 PUSH2 0xA83 JUMP JUMPDEST PUSH1 0x40 MLOAD DUP1 SWAP2 SUB SWAP1 RETURN JUMPDEST PUSH2 0x17D PUSH2 0x5FD JUMP JUMPDEST PUSH1 0x40 MLOAD PUSH2 0x18A SWAP2 SWAP1 PUSH2 0xA83 JUMP JUMPDEST PUSH1 0x40 MLOAD DUP1 SWAP2 SUB SWAP1 RETURN JUMPDEST PUSH2 0x1AD PUSH1 0x4 DUP1 CALLDATASIZE SUB DUP2 ADD SWAP1 PUSH2 0x1A8 SWAP2 SWAP1 PUSH2 0xA3D JUMP JUMPDEST PUSH2 0x602 JUMP JUMPDEST PUSH1 0x40 MLOAD PUSH2 0x1BA SWAP2 SWAP1 PUSH2 0xB0F JUMP JUMPDEST PUSH1 0x40 MLOAD DUP1 SWAP2 SUB SWAP1 RETURN JUMPDEST PUSH2 0x1DD PUSH1 0x4 DUP1 CALLDATASIZE SUB DUP2 ADD SWAP1 PUSH2 0x1D8 SWAP2 SWAP1 PUSH2 0xA3D JUMP JUMPDEST PUSH2 0x61E JUMP JUMPDEST PUSH1 0x40 MLOAD PUSH2 0x1EA SWAP2 SWAP1 PUSH2 0xB42 JUMP JUMPDEST PUSH1 0x40 MLOAD DUP1 SWAP2 SUB SWAP1 RETURN JUMPDEST PUSH2 0x1FB PUSH2 0x63B JUMP JUMPDEST PUSH1 0x40 MLOAD PUSH2 0x208 SWAP2 SWAP1 PUSH2 0xA83 JUMP JUMPDEST PUSH1 0x40 MLOAD DUP1 SWAP2 SUB SWAP1 RETURN JUMPDEST PUSH2 0x219 PUSH2 0x640 JUMP JUMPDEST PUSH1 0x40 MLOAD PUSH2 0x226 SWAP2 SWAP1 PUSH2 0xA83 JUMP JUMPDEST PUSH1 0x40 MLOAD DUP1 SWAP2 SUB SWAP1 RETURN JUMPDEST PUSH2 0x249 PUSH1 0x4 DUP1 CALLDATASIZE SUB DUP2 ADD SWAP1 PUSH2 0x244 SWAP2 SWAP1 PUSH2 0xA3D JUMP JUMPDEST PUSH2 0x645 JUMP JUMPDEST STOP JUMPDEST PUSH2 0x265 PUSH1 0x4 DUP1 CALLDATASIZE SUB DUP2 ADD SWAP1 PUSH2 0x260 SWAP2 SWAP1 PUSH2 0xA3D JUMP JUMPDEST PUSH2 0x7C2 JUMP JUMPDEST STOP JUMPDEST PUSH2 0x281 PUSH1 0x4 DUP1 CALLDATASIZE SUB DUP2 ADD SWAP1 PUSH2 0x27C SWAP2 SWAP1 PUSH2 0xA3D JUMP JUMPDEST PUSH2 0x8D0 JUMP JUMPDEST STOP JUMPDEST PUSH1 0x1 PUSH0 DUP3 PUSH20 0xFFFFFFFFFFFFFFFFFFFFFFFFFFFFFFFFFFFFFFFF AND PUSH20 0xFFFFFFFFFFFFFFFFFFFFFFFFFFFFFFFFFFFFFFFF AND DUP2 MSTORE PUSH1 0x20 ADD SWAP1 DUP2 MSTORE PUSH1 0x20 ADD PUSH0 KECCAK256 PUSH0 SWAP1 SLOAD SWAP1 PUSH2 0x100 EXP SWAP1 DIV PUSH1 0xFF AND ISZERO PUSH2 0x30D JUMPI PUSH1 0x40 MLOAD PUSH32 0x8C379A000000000000000000000000000000000000000000000000000000000 DUP2 MSTORE PUSH1 0x4 ADD PUSH2 0x304 SWAP1 PUSH2 0xBB5 JUMP JUMPDEST PUSH1 0x40 MLOAD DUP1 SWAP2 SUB SWAP1 REVERT JUMPDEST PUSH1 0x2 PUSH0 DUP1 DUP4 PUSH20 0xFFFFFFFFFFFFFFFFFFFFFFFFFFFFFFFFFFFFFFFF AND PUSH20 0xFFFFFFFFFFFFFFFFFFFFFFFFFFFFFFFFFFFFFFFF AND DUP2 MSTORE PUSH1 0x20 ADD SWAP1 DUP2 MSTORE PUSH1 0x20 ADD PUSH0 KECCAK256 PUSH0 PUSH2 0x100 EXP DUP2 SLOAD DUP2 PUSH1 0xFF MUL NOT AND SWAP1 DUP4 PUSH1 0x2 DUP2 GT ISZERO PUSH2 0x36C JUMPI PUSH2 0x36B PUSH2 0xA9C JUMP JUMPDEST JUMPDEST MUL OR SWAP1 SSTORE POP PUSH1 0x1 DUP1 PUSH0 DUP4 PUSH20 0xFFFFFFFFFFFFFFFFFFFFFFFFFFFFFFFFFFFFFFFF AND PUSH20 0xFFFFFFFFFFFFFFFFFFFFFFFFFFFFFFFFFFFFFFFF AND DUP2 MSTORE PUSH1 0x20 ADD SWAP1 DUP2 MSTORE PUSH1 0x20 ADD PUSH0 KECCAK256 PUSH0 PUSH2 0x100 EXP DUP2 SLOAD DUP2 PUSH1 0xFF MUL NOT AND SWAP1 DUP4 ISZERO ISZERO MUL OR SWAP1 SSTORE POP PUSH32 0x4221FFA167B8D0A33647E46EE4F6728F4FE3651E4D56715ED0941B12046147B DUP2 PUSH1 0x2 PUSH1 0x40 MLOAD PUSH2 0x3F7 SWAP3 SWAP2 SWAP1 PUSH2 0xC2C JUMP JUMPDEST PUSH1 0x40 MLOAD DUP1 SWAP2 SUB SWAP1 LOG1 POP JUMP JUMPDEST PUSH1 0x2 PUSH1 0x20 MSTORE DUP1 PUSH0 MSTORE PUSH1 0x40 PUSH0 KECCAK256 PUSH0 SWAP2 POP SLOAD SWAP1 PUSH2 0x100 EXP SWAP1 DIV PUSH1 0xFF AND DUP2 JUMP JUMPDEST PUSH1 0x5 DUP2 JUMP JUMPDEST PUSH1 0x1 PUSH0 DUP3 PUSH20 0xFFFFFFFFFFFFFFFFFFFFFFFFFFFFFFFFFFFFFFFF AND PUSH20 0xFFFFFFFFFFFFFFFFFFFFFFFFFFFFFFFFFFFFFFFF AND DUP2 MSTORE PUSH1 0x20 ADD SWAP1 DUP2 MSTORE PUSH1 0x20 ADD PUSH0 KECCAK256 PUSH0 SWAP1 SLOAD SWAP1 PUSH2 0x100 EXP SWAP1 DIV PUSH1 0xFF AND ISZERO PUSH2 0x4AE JUMPI PUSH1 0x40 MLOAD PUSH32 0x8C379A000000000000000000000000000000000000000000000000000000000 DUP2 MSTORE PUSH1 0x4 ADD PUSH2 0x4A5 SWAP1 PUSH2 0xBB5 JUMP JUMPDEST PUSH1 0x40 MLOAD DUP1 SWAP2 SUB SWAP1 REVERT JUMPDEST PUSH1 0x1 PUSH0 DUP1 DUP4 PUSH20 0xFFFFFFFFFFFFFFFFFFFFFFFFFFFFFFFFFFFFFFFF AND PUSH20 0xFFFFFFFFFFFFFFFFFFFFFFFFFFFFFFFFFFFFFFFF AND DUP2 MSTORE PUSH1 0x20 ADD SWAP1 DUP2 MSTORE PUSH1 0x20 ADD PUSH0 KECCAK256 PUSH0 PUSH2 0x100 EXP DUP2 SLOAD DUP2 PUSH1 0xFF MUL NOT AND SWAP1 DUP4 PUSH1 0x2 DUP2 GT ISZERO PUSH2 0x50D JUMPI PUSH2 0x50C PUSH2 0xA9C JUMP JUMPDEST JUMPDEST MUL OR SWAP1 SSTORE POP PUSH1 0x1 DUP1 PUSH0 DUP4 PUSH20 0xFFFFFFFFFFFFFFFFFFFFFFFFFFFFFFFFFFFFFFFF AND PUSH20 0xFFFFFFFFFFFFFFFFFFFFFFFFFFFFFFFFFFFFFFFF AND DUP2 MSTORE PUSH1 0x20 ADD SWAP1 DUP2 MSTORE PUSH1 0x20 ADD PUSH0 KECCAK256 PUSH0 PUSH2 0x100 EXP DUP2 SLOAD DUP2 PUSH1 0xFF MUL NOT AND SWAP1 DUP4 ISZERO ISZERO MUL OR SWAP1 SSTORE POP PUSH1 0x32 PUSH1 0x2 PUSH0 DUP4 PUSH20 0xFFFFFFFFFFFFFFFFFFFFFFFFFFFFFFFFFFFFFFFF AND PUSH20 0xFFFFFFFFFFFFFFFFFFFFFFFFFFFFFFFFFFFFFFFF AND DUP2 MSTORE PUSH1 0x20 ADD SWAP1 DUP2 MSTORE PUSH1 0x20 ADD PUSH0 KECCAK256 PUSH0 PUSH2 0x100 EXP DUP2 SLOAD DUP2 PUSH1 0xFF MUL NOT AND SWAP1 DUP4 PUSH1 0xFF AND MUL OR SWAP1 SSTORE POP PUSH32 0x4221FFA167B8D0A33647E46EE4F6728F4FE3651E4D56715ED0941B12046147B DUP2 PUSH1 0x1 PUSH1 0x40 MLOAD PUSH2 0x5EE SWAP3 SWAP2 SWAP1 PUSH2 0xCB0 JUMP JUMPDEST PUSH1 0x40 MLOAD DUP1 SWAP2 SUB SWAP1 LOG1 POP JUMP JUMPDEST PUSH0 DUP2 JUMP JUMPDEST PUSH1 0x32 DUP2 JUMP JUMPDEST PUSH0 PUSH1 0x20 MSTORE DUP1 PUSH0 MSTORE PUSH1 0x40 PUSH0 KECCAK256 PUSH0 SWAP2 POP SLOAD SWAP1 PUSH2 0x100 EXP SWAP1 DIV PUSH1 0xFF AND DUP2 JUMP JUMPDEST PUSH1 0x1 PUSH1 0x20 MSTORE DUP1 PUSH0 MSTORE PUSH1 0x40 PUSH0 KECCAK256 PUSH0 SWAP2 POP SLOAD SWAP1 PUSH2 0x100 EXP SWAP1 DIV PUSH1 0xFF AND DUP2 JUMP JUMPDEST PUSH1 0xA DUP2 JUMP JUMPDEST PUSH1 0x96 DUP2 JUMP JUMPDEST PUSH1 0x1 PUSH0 DUP3 PUSH20 0xFFFFFFFFFFFFFFFFFFFFFFFFFFFFFFFFFFFFFFFF AND PUSH20 0xFFFFFFFFFFFFFFFFFFFFFFFFFFFFFFFFFFFFFFFF AND DUP2 MSTORE PUSH1 0x20 ADD SWAP1 DUP2 MSTORE PUSH1 0x20 ADD PUSH0 KECCAK256 PUSH0 SWAP1 SLOAD SWAP1 PUSH2 0x100 EXP SWAP1 DIV PUSH1 0xFF AND ISZERO PUSH2 0x6CF JUMPI PUSH1 0x40 MLOAD PUSH32 0x8C379A000000000000000000000000000000000000000000000000000000000 DUP2 MSTORE PUSH1 0x4 ADD PUSH2 0x6C6 SWAP1 PUSH2 0xBB5 JUMP JUMPDEST PUSH1 0x40 MLOAD DUP1 SWAP2 SUB SWAP1 REVERT JUMPDEST PUSH0 DUP1 PUSH0 DUP4 PUSH20 0xFFFFFFFFFFFFFFFFFFFFFFFFFFFFFFFFFFFFFFFF AND PUSH20 0xFFFFFFFFFFFFFFFFFFFFFFFFFFFFFFFFFFFFFFFF AND DUP2 MSTORE PUSH1 0x20 ADD SWAP1 DUP2 MSTORE PUSH1 0x20 ADD PUSH0 KECCAK256 PUSH0 PUSH2 0x100 EXP DUP2 SLOAD DUP2 PUSH1 0xFF MUL NOT AND SWAP1 DUP4 PUSH1 0x2 DUP2 GT ISZERO PUSH2 0x72D JUMPI PUSH2 0x72C PUSH2 0xA9C JUMP JUMPDEST JUMPDEST MUL OR SWAP1 SSTORE POP PUSH1 0x1 DUP1 PUSH0 DUP4 PUSH20 0xFFFFFFFFFFFFFFFFFFFFFFFFFFFFFFFFFFFFFFFF AND PUSH20 0xFFFFFFFFFFFFFFFFFFFFFFFFFFFFFFFFFFFFFFFF AND DUP2 MSTORE PUSH1 0x20 ADD SWAP1 DUP2 MSTORE PUSH1 0x20 ADD PUSH0 KECCAK256 PUSH0 PUSH2 0x100 EXP DUP2 SLOAD DUP2 PUSH1 0xFF MUL NOT AND SWAP1 DUP4 ISZERO ISZERO MUL OR SWAP1 SSTORE POP PUSH32 0x4221FFA167B8D0A33647E46EE4F6728F4FE3651E4D56715ED0941B12046147B DUP2 PUSH0 PUSH1 0x40 MLOAD PUSH2 0x7B7 SWAP3 SWAP2 SWAP1 PUSH2 0xD34 JUMP JUMPDEST PUSH1 0x40 MLOAD DUP1 SWAP2 SUB SWAP1 LOG1 POP JUMP JUMPDEST PUSH0 PUSH1 0xFF AND PUSH1 0xA PUSH1 0x2 PUSH0 DUP5 PUSH20 0xFFFFFFFFFFFFFFFFFFFFFFFFFFFFFFFFFFFFFFFF AND PUSH20 0xFFFFFFFFFFFFFFFFFFFFFFFFFFFFFFFFFFFFFFFF AND DUP2 MSTORE PUSH1 0x20 ADD SWAP1 DUP2 MSTORE PUSH1 0x20 ADD PUSH0 KECCAK256 PUSH0 SWAP1 SLOAD SWAP1 PUSH2 0x100 EXP SWAP1 DIV PUSH1 0xFF AND PUSH2 0x81C SWAP2 SWAP1 PUSH2 0xD9B JUMP JUMPDEST PUSH1 0xFF AND LT PUSH2 0x896 JUMPI PUSH1 0xA PUSH1 0x2 PUSH0 DUP4 PUSH20 0xFFFFFFFFFFFFFFFFFFFFFFFFFFFFFFFFFFFFFFFF AND PUSH20 0xFFFFFFFFFFFFFFFFFFFFFFFFFFFFFFFFFFFFFFFF AND DUP2 MSTORE PUSH1 0x20 ADD SWAP1 DUP2 MSTORE PUSH1 0x20 ADD PUSH0 KECCAK256 PUSH0 DUP3 DUP3 DUP3 SWAP1 SLOAD SWAP1 PUSH2 0x100 EXP SWAP1 DIV PUSH1 0xFF AND PUSH2 0x87D SWAP2 SWAP1 PUSH2 0xD9B JUMP JUMPDEST SWAP3 POP PUSH2 0x100 EXP DUP2 SLOAD DUP2 PUSH1 0xFF MUL NOT AND SWAP1 DUP4 PUSH1 0xFF AND MUL OR SWAP1 SSTORE POP JUMPDEST PUSH32 0x446103B2780AD05F3FE19CD37F39E93E452C1947FE60E508B915815F155B7D29 DUP2 PUSH1 0x40 MLOAD PUSH2 0x8C5 SWAP2 SWAP1 PUSH2 0xDCF JUMP JUMPDEST PUSH1 0x40 MLOAD DUP1 SWAP2 SUB SWAP1 LOG1 POP JUMP JUMPDEST PUSH1 0x96 PUSH1 0xFF AND PUSH1 0x5 PUSH1 0x2 PUSH0 DUP5 PUSH20 0xFFFFFFFFFFFFFFFFFFFFFFFFFFFFFFFFFFFFFFFF AND PUSH20 0xFFFFFFFFFFFFFFFFFFFFFFFFFFFFFFFFFFFFFFFF AND DUP2 MSTORE PUSH1 0x20 ADD SWAP1 DUP2 MSTORE PUSH1 0x20 ADD PUSH0 KECCAK256 PUSH0 SWAP1 SLOAD SWAP1 PUSH2 0x100 EXP SWAP1 DIV PUSH1 0xFF AND PUSH2 0x92B SWAP2 SWAP1 PUSH2 0xDE8 JUMP JUMPDEST PUSH1 0xFF AND GT PUSH2 0x9A5 JUMPI PUSH1 0x5 PUSH1 0x2 PUSH0 DUP4 PUSH20 0xFFFFFFFFFFFFFFFFFFFFFFFFFFFFFFFFFFFFFFFF AND PUSH20 0xFFFFFFFFFFFFFFFFFFFFFFFFFFFFFFFFFFFFFFFF AND DUP2 MSTORE PUSH1 0x20 ADD SWAP1 DUP2 MSTORE PUSH1 0x20 ADD PUSH0 KECCAK256 PUSH0 DUP3 DUP3 DUP3 SWAP1 SLOAD SWAP1 PUSH2 0x100 EXP SWAP1 DIV PUSH1 0xFF AND PUSH2 0x98C SWAP2 SWAP1 PUSH2 0xDE8 JUMP JUMPDEST SWAP3 POP PUSH2 0x100 EXP DUP2 SLOAD DUP2 PUSH1 0xFF MUL NOT AND SWAP1 DUP4 PUSH1 0xFF AND MUL OR SWAP1 SSTORE POP JUMPDEST PUSH32 0x8E8C1956CCC9E881A3E282DBD9413856024D7A0739AA1B33049CE826924F877 DUP2 PUSH1 0x40 MLOAD PUSH2 0x9D4 SWAP2 SWAP1 PUSH2 0xDCF JUMP JUMPDEST PUSH1 0x40 MLOAD DUP1 SWAP2 SUB SWAP1 LOG1 POP JUMP JUMPDEST PUSH0 DUP1 REVERT JUMPDEST PUSH0 PUSH20 0xFFFFFFFFFFFFFFFFFFFFFFFFFFFFFFFFFFFFFFFF DUP3 AND SWAP1 POP SWAP2 SWAP1 POP JUMP JUMPDEST PUSH0 PUSH2 0xA0C DUP3 PUSH2 0x9E3 JUMP JUMPDEST SWAP1 POP SWAP2 SWAP1 POP JUMP JUMPDEST PUSH2 0xA1C DUP2 PUSH2 0xA02 JUMP JUMPDEST DUP2 EQ PUSH2 0xA26 JUMPI PUSH0 DUP1 REVERT JUMPDEST POP JUMP JUMPDEST PUSH0 DUP2 CALLDATALOAD SWAP1 POP PUSH2 0xA37 DUP2 PUSH2 0xA13 JUMP JUMPDEST SWAP3 SWAP2 POP POP JUMP JUMPDEST PUSH0 PUSH1 0x20 DUP3 DUP5 SUB SLT ISZERO PUSH2 0xA52 JUMPI PUSH2 0xA51 PUSH2 0x9DF JUMP JUMPDEST JUMPDEST PUSH0 PUSH2 0xA5F DUP5 DUP3 DUP6 ADD PUSH2 0xA29 JUMP JUMPDEST SWAP2 POP POP SWAP3 SWAP2 POP POP JUMP JUMPDEST PUSH0 PUSH1 0xFF DUP3 AND SWAP1 POP SWAP2 SWAP1 POP JUMP JUMPDEST PUSH2 0xA7D DUP2 PUSH2 0xA68 JUMP JUMPDEST DUP3 MSTORE POP POP JUMP JUMPDEST PUSH0 PUSH1 0x20 DUP3 ADD SWAP1 POP PUSH2 0xA96 PUSH0 DUP4 ADD DUP5 PUSH2 0xA74 JUMP JUMPDEST SWAP3 SWAP2 POP POP JUMP JUMPDEST PUSH32 0x4E487B7100000000000000000000000000000000000000000000000000000000 PUSH0 MSTORE PUSH1 0x21 PUSH1 0x4 MSTORE PUSH1 0x24 PUSH0 REVERT JUMPDEST PUSH1 0x3 DUP2 LT PUSH2 0xADA JUMPI PUSH2 0xAD9 PUSH2 0xA9C JUMP JUMPDEST JUMPDEST POP JUMP JUMPDEST PUSH0 DUP2 SWAP1 POP PUSH2 0xAEA DUP3 PUSH2 0xAC9 JUMP JUMPDEST SWAP2 SWAP1 POP JUMP JUMPDEST PUSH0 PUSH2 0xAF9 DUP3 PUSH2 0xADD JUMP JUMPDEST SWAP1 POP SWAP2 SWAP1 POP JUMP JUMPDEST PUSH2 0xB09 DUP2 PUSH2 0xAEF JUMP JUMPDEST DUP3 MSTORE POP POP JUMP JUMPDEST PUSH0 PUSH1 0x20 DUP3 ADD SWAP1 POP PUSH2 0xB22 PUSH0 DUP4 ADD DUP5 PUSH2 0xB00 JUMP JUMPDEST SWAP3 SWAP2 POP POP JUMP JUMPDEST PUSH0 DUP2 ISZERO ISZERO SWAP1 POP SWAP2 SWAP1 POP JUMP JUMPDEST PUSH2 0xB3C DUP2 PUSH2 0xB28 JUMP JUMPDEST DUP3 MSTORE POP POP JUMP JUMPDEST PUSH0 PUSH1 0x20 DUP3 ADD SWAP1 POP PUSH2 0xB55 PUSH0 DUP4 ADD DUP5 PUSH2 0xB33 JUMP JUMPDEST SWAP3 SWAP2 POP POP JUMP JUMPDEST PUSH0 DUP3 DUP3 MSTORE PUSH1 0x20 DUP3 ADD SWAP1 POP SWAP3 SWAP2 POP POP JUMP JUMPDEST PUSH32 0x5573657220616C72656164792072656769737465726564210000000000000000 PUSH0 DUP3 ADD MSTORE POP JUMP JUMPDEST PUSH0 PUSH2 0xB9F PUSH1 0x18 DUP4 PUSH2 0xB5B JUMP JUMPDEST SWAP2 POP PUSH2 0xBAA DUP3 PUSH2 0xB6B JUMP JUMPDEST PUSH1 0x20 DUP3 ADD SWAP1 POP SWAP2 SWAP1 POP JUMP JUMPDEST PUSH0 PUSH1 0x20 DUP3 ADD SWAP1 POP DUP2 DUP2 SUB PUSH0 DUP4 ADD MSTORE PUSH2 0xBCC DUP2 PUSH2 0xB93 JUMP JUMPDEST SWAP1 POP SWAP2 SWAP1 POP JUMP JUMPDEST PUSH2 0xBDC DUP2 PUSH2 0xA02 JUMP JUMPDEST DUP3 MSTORE POP POP JUMP JUMPDEST PUSH32 0x5265676973746572656420617320526563656976657200000000000000000000 PUSH0 DUP3 ADD MSTORE POP JUMP JUMPDEST PUSH0 PUSH2 0xC16 PUSH1 0x16 DUP4 PUSH2 0xB5B JUMP JUMPDEST SWAP2 POP PUSH2 0xC21 DUP3 PUSH2 0xBE2 JUMP JUMPDEST PUSH1 0x20 DUP3 ADD SWAP1 POP SWAP2 SWAP1 POP JUMP JUMPDEST PUSH0 PUSH1 0x60 DUP3 ADD SWAP1 POP PUSH2 0xC3F PUSH0 DUP4 ADD DUP6 PUSH2 0xBD3 JUMP JUMPDEST PUSH2 0xC4C PUSH1 0x20 DUP4 ADD DUP5 PUSH2 0xB00 JUMP JUMPDEST DUP2 DUP2 SUB PUSH1 0x40 DUP4 ADD MSTORE PUSH2 0xC5D DUP2 PUSH2 0xC0A JUMP JUMPDEST SWAP1 POP SWAP4 SWAP3 POP POP POP JUMP JUMPDEST PUSH32 0x5265676973746572656420617320436F75726965720000000000000000000000 PUSH0 DUP3 ADD MSTORE POP JUMP JUMPDEST PUSH0 PUSH2 0xC9A PUSH1 0x15 DUP4 PUSH2 0xB5B JUMP JUMPDEST SWAP2 POP PUSH2 0xCA5 DUP3 PUSH2 0xC66 JUMP JUMPDEST PUSH1 0x20 DUP3 ADD SWAP1 POP SWAP2 SWAP1 POP JUMP JUMPDEST PUSH0 PUSH1 0x60 DUP3 ADD SWAP1 POP PUSH2 0xCC3 PUSH0 DUP4 ADD DUP6 PUSH2 0xBD3 JUMP JUMPDEST PUSH2 0xCD0 PUSH1 0x20 DUP4 ADD DUP5 PUSH2 0xB00 JUMP JUMPDEST DUP2 DUP2 SUB PUSH1 0x40 DUP4 ADD MSTORE PUSH2 0xCE1 DUP2 PUSH2 0xC8E JUMP JUMPDEST SWAP1 POP SWAP4 SWAP3 POP POP POP JUMP JUMPDEST PUSH32 0x526567697374657265642061732053656E6465722E0000000000000000000000 PUSH0 DUP3 ADD MSTORE POP JUMP JUMPDEST PUSH0 PUSH2 0xD1E PUSH1 0x15 DUP4 PUSH2 0xB5B JUMP JUMPDEST SWAP2 POP PUSH2 0xD29 DUP3 PUSH2 0xCEA JUMP JUMPDEST PUSH1 0x20 DUP3 ADD SWAP1 POP SWAP2 SWAP1 POP JUMP JUMPDEST PUSH0 PUSH1 0x60 DUP3 ADD SWAP1 POP PUSH2 0xD47 PUSH0 DUP4 ADD DUP6 PUSH2 0xBD3 JUMP JUMPDEST PUSH2 0xD54 PUSH1 0x20 DUP4 ADD DUP5 PUSH2 0xB00 JUMP JUMPDEST DUP2 DUP2 SUB PUSH1 0x40 DUP4 ADD MSTORE PUSH2 0xD65 DUP2 PUSH2 0xD12 JUMP JUMPDEST SWAP1 POP SWAP4 SWAP3 POP POP POP JUMP JUMPDEST PUSH32 0x4E487B7100000000000000000000000000000000000000000000000000000000 PUSH0 MSTORE PUSH1 0x11 PUSH1 0x4 MSTORE PUSH1 0x24 PUSH0 REVERT JUMPDEST PUSH0 PUSH2 0xDA5 DUP3 PUSH2 0xA68 JUMP JUMPDEST SWAP2 POP PUSH2 0xDB0 DUP4 PUSH2 0xA68 JUMP JUMPDEST SWAP3 POP DUP3 DUP3 SUB SWAP1 POP PUSH1 0xFF DUP2 GT ISZERO PUSH2 0xDC9 JUMPI PUSH2 0xDC8 PUSH2 0xD6E JUMP JUMPDEST JUMPDEST SWAP3 SWAP2 POP POP JUMP JUMPDEST PUSH0 PUSH1 0x20 DUP3 ADD SWAP1 POP PUSH2 0xDE2 PUSH0 DUP4 ADD DUP5 PUSH2 0xBD3 JUMP JUMPDEST SWAP3 SWAP2 POP POP JUMP JUMPDEST PUSH0 PUSH2 0xDF2 DUP3 PUSH2 0xA68 JUMP JUMPDEST SWAP2 POP PUSH2 0xDFD DUP4 PUSH2 0xA68 JUMP JUMPDEST SWAP3 POP DUP3 DUP3 ADD SWAP1 POP PUSH1 0xFF DUP2 GT ISZERO PUSH2 0xE16 JUMPI PUSH2 0xE15 PUSH2 0xD6E JUMP JUMPDEST JUMPDEST SWAP3 SWAP2 POP POP JUMP INVALID LOG2 PUSH5 0x6970667358 0x22 SLT KECCAK256 0xCF PUSH25 0x25238B503FA69AFE3DB5D9235DC6C6C24BE7A593FBE1827FB8 0x29 PUSH13 0x48284B64736F6C634300081A00 CALLER "
				},
				"gasEstimates": {
					"creation": {
						"codeDepositCost": "733200",
						"executionCost": "764",
						"totalCost": "733964"
					},
					"external": {
						"DEFAULT_REPUTATION()": "442",
						"MAX_REPUTATION()": "353",
						"MIN_REPUTATION()": "419",
						"PENALTY_VALUE()": "398",
						"REWARD_VALUE()": "376",
						"courierReputation(address)": "2856",
						"isRegistered(address)": "2878",
						"penalizeCourier(address)": "infinite",
						"registerAsCourier(address)": "infinite",
						"registerAsReciever(address)": "infinite",
						"registerAsSender(address)": "infinite",
						"rewardCourier(address)": "infinite",
						"userRoles(address)": "2943"
					}
				},
				"methodIdentifiers": {
					"DEFAULT_REPUTATION()": "69ce34ab",
					"MAX_REPUTATION()": "d213c0f2",
					"MIN_REPUTATION()": "697c6045",
					"PENALTY_VALUE()": "cb6baeb8",
					"REWARD_VALUE()": "524ecda4",
					"courierReputation(address)": "481950b8",
					"isRegistered(address)": "c3c5a547",
					"penalizeCourier(address)": "fc92503f",
					"registerAsCourier(address)": "6833ebcf",
					"registerAsReciever(address)": "20b9e087",
					"registerAsSender(address)": "fb357d70",
					"rewardCourier(address)": "fef3d253",
					"userRoles(address)": "74d5e100"
				}
			},
			"storageLayout": {
				"storage": [
					{
						"astId": 25,
						"contract": "contracts/UserManagement.sol:UserManagement",
						"label": "userRoles",
						"offset": 0,
						"slot": "0",
						"type": "t_mapping(t_address,t_enum(Role)5)"
					},
					{
						"astId": 29,
						"contract": "contracts/UserManagement.sol:UserManagement",
						"label": "isRegistered",
						"offset": 0,
						"slot": "1",
						"type": "t_mapping(t_address,t_bool)"
					},
					{
						"astId": 33,
						"contract": "contracts/UserManagement.sol:UserManagement",
						"label": "courierReputation",
						"offset": 0,
						"slot": "2",
						"type": "t_mapping(t_address,t_uint8)"
					}
				],
				"types": {
					"t_address": {
						"encoding": "inplace",
						"label": "address",
						"numberOfBytes": "20"
					},
					"t_bool": {
						"encoding": "inplace",
						"label": "bool",
						"numberOfBytes": "1"
					},
					"t_enum(Role)5": {
						"encoding": "inplace",
						"label": "enum UserManagement.Role",
						"numberOfBytes": "1"
					},
					"t_mapping(t_address,t_bool)": {
						"encoding": "mapping",
						"key": "t_address",
						"label": "mapping(address => bool)",
						"numberOfBytes": "32",
						"value": "t_bool"
					},
					"t_mapping(t_address,t_enum(Role)5)": {
						"encoding": "mapping",
						"key": "t_address",
						"label": "mapping(address => enum UserManagement.Role)",
						"numberOfBytes": "32",
						"value": "t_enum(Role)5"
					},
					"t_mapping(t_address,t_uint8)": {
						"encoding": "mapping",
						"key": "t_address",
						"label": "mapping(address => uint8)",
						"numberOfBytes": "32",
						"value": "t_uint8"
					},
					"t_uint8": {
						"encoding": "inplace",
						"label": "uint8",
						"numberOfBytes": "1"
					}
				}
			},
			"userdoc": {
				"kind": "user",
				"methods": {},
				"version": 1
			}
		}
	}
}