{
	"data": {
		"bytecode": {
			"linkReferences": {},
			"object": "6080604052348015600e575f80fd5b506105998061001c5f395ff3fe608060405234801561000f575f80fd5b506004361061004a575f3560e01c806322009af61461004e578063c25838a21461006c578063ce65595b1461008a578063d948c588146100ba575b5f80fd5b6100566100d8565b60405161006391906101d9565b60405180910390f35b6100746100e4565b60405161008191906101d9565b60405180910390f35b6100a4600480360381019061009f9190610369565b6100f0565b6040516100b191906101d9565b60405180910390f35b6100c26101b5565b6040516100cf91906101d9565b60405180910390f35b678ac7230489e8000081565b67016345785d8a000081565b5f80600a90505f601490505f81831061011657818361010f919061041e565b9050610125565b8282610122919061041e565b90505b5f67016345785d8a00008261013a9190610451565b90505f67016345785d8a0000876101519190610451565b90507f234a54ff20b5c35e605857aacde370691fd05659066e3c90e44d9063fe2fd52a60405161018090610512565b60405180910390a18082678ac7230489e8000061019d9190610530565b6101a79190610530565b955050505050509392505050565b67016345785d8a000081565b5f819050919050565b6101d3816101c1565b82525050565b5f6020820190506101ec5f8301846101ca565b92915050565b5f604051905090565b5f80fd5b5f80fd5b5f80fd5b5f80fd5b5f601f19601f8301169050919050565b7f4e487b71000000000000000000000000000000000000000000000000000000005f52604160045260245ffd5b6102518261020b565b810181811067ffffffffffffffff821117156102705761026f61021b565b5b80604052505050565b5f6102826101f2565b905061028e8282610248565b919050565b5f67ffffffffffffffff8211156102ad576102ac61021b565b5b6102b68261020b565b9050602081019050919050565b828183375f83830152505050565b5f6102e36102de84610293565b610279565b9050828152602081018484840111156102ff576102fe610207565b5b61030a8482856102c3565b509392505050565b5f82601f83011261032657610325610203565b5b81356103368482602086016102d1565b91505092915050565b610348816101c1565b8114610352575f80fd5b50565b5f813590506103638161033f565b92915050565b5f805f606084860312156103805761037f6101fb565b5b5f84013567ffffffffffffffff81111561039d5761039c6101ff565b5b6103a986828701610312565b935050602084013567ffffffffffffffff8111156103ca576103c96101ff565b5b6103d686828701610312565b92505060406103e786828701610355565b9150509250925092565b7f4e487b71000000000000000000000000000000000000000000000000000000005f52601160045260245ffd5b5f610428826101c1565b9150610433836101c1565b925082820390508181111561044b5761044a6103f1565b5b92915050565b5f61045b826101c1565b9150610466836101c1565b9250828202610474816101c1565b9150828204841483151761048b5761048a6103f1565b5b5092915050565b5f82825260208201905092915050565b7f5741524e494e47203a2052657475726e696e6720612074657374696e67206e755f8201527f6d62657221000000000000000000000000000000000000000000000000000000602082015250565b5f6104fc602583610492565b9150610507826104a2565b604082019050919050565b5f6020820190508181035f830152610529816104f0565b9050919050565b5f61053a826101c1565b9150610545836101c1565b925082820190508082111561055d5761055c6103f1565b5b9291505056fea2646970667358221220e1c47728b6c9b30ff69cad1145b92a42408eea7606c9034e6b6ed8d3b6894d7664736f6c634300081a0033",
			"opcodes": "PUSH1 0x80 PUSH1 0x40 MSTORE CALLVALUE DUP1 ISZERO PUSH1 0xE JUMPI PUSH0 DUP1 REVERT JUMPDEST POP PUSH2 0x599 DUP1 PUSH2 0x1C PUSH0 CODECOPY PUSH0 RETURN INVALID PUSH1 0x80 PUSH1 0x40 MSTORE CALLVALUE DUP1 ISZERO PUSH2 0xF JUMPI PUSH0 DUP1 REVERT JUMPDEST POP PUSH1 0x4 CALLDATASIZE LT PUSH2 0x4A JUMPI PUSH0 CALLDATALOAD PUSH1 0xE0 SHR DUP1 PUSH4 0x22009AF6 EQ PUSH2 0x4E JUMPI DUP1 PUSH4 0xC25838A2 EQ PUSH2 0x6C JUMPI DUP1 PUSH4 0xCE65595B EQ PUSH2 0x8A JUMPI DUP1 PUSH4 0xD948C588 EQ PUSH2 0xBA JUMPI JUMPDEST PUSH0 DUP1 REVERT JUMPDEST PUSH2 0x56 PUSH2 0xD8 JUMP JUMPDEST PUSH1 0x40 MLOAD PUSH2 0x63 SWAP2 SWAP1 PUSH2 0x1D9 JUMP JUMPDEST PUSH1 0x40 MLOAD DUP1 SWAP2 SUB SWAP1 RETURN JUMPDEST PUSH2 0x74 PUSH2 0xE4 JUMP JUMPDEST PUSH1 0x40 MLOAD PUSH2 0x81 SWAP2 SWAP1 PUSH2 0x1D9 JUMP JUMPDEST PUSH1 0x40 MLOAD DUP1 SWAP2 SUB SWAP1 RETURN JUMPDEST PUSH2 0xA4 PUSH1 0x4 DUP1 CALLDATASIZE SUB DUP2 ADD SWAP1 PUSH2 0x9F SWAP2 SWAP1 PUSH2 0x369 JUMP JUMPDEST PUSH2 0xF0 JUMP JUMPDEST PUSH1 0x40 MLOAD PUSH2 0xB1 SWAP2 SWAP1 PUSH2 0x1D9 JUMP JUMPDEST PUSH1 0x40 MLOAD DUP1 SWAP2 SUB SWAP1 RETURN JUMPDEST PUSH2 0xC2 PUSH2 0x1B5 JUMP JUMPDEST PUSH1 0x40 MLOAD PUSH2 0xCF SWAP2 SWAP1 PUSH2 0x1D9 JUMP JUMPDEST PUSH1 0x40 MLOAD DUP1 SWAP2 SUB SWAP1 RETURN JUMPDEST PUSH8 0x8AC7230489E80000 DUP2 JUMP JUMPDEST PUSH8 0x16345785D8A0000 DUP2 JUMP JUMPDEST PUSH0 DUP1 PUSH1 0xA SWAP1 POP PUSH0 PUSH1 0x14 SWAP1 POP PUSH0 DUP2 DUP4 LT PUSH2 0x116 JUMPI DUP2 DUP4 PUSH2 0x10F SWAP2 SWAP1 PUSH2 0x41E JUMP JUMPDEST SWAP1 POP PUSH2 0x125 JUMP JUMPDEST DUP3 DUP3 PUSH2 0x122 SWAP2 SWAP1 PUSH2 0x41E JUMP JUMPDEST SWAP1 POP JUMPDEST PUSH0 PUSH8 0x16345785D8A0000 DUP3 PUSH2 0x13A SWAP2 SWAP1 PUSH2 0x451 JUMP JUMPDEST SWAP1 POP PUSH0 PUSH8 0x16345785D8A0000 DUP8 PUSH2 0x151 SWAP2 SWAP1 PUSH2 0x451 JUMP JUMPDEST SWAP1 POP PUSH32 0x234A54FF20B5C35E605857AACDE370691FD05659066E3C90E44D9063FE2FD52A PUSH1 0x40 MLOAD PUSH2 0x180 SWAP1 PUSH2 0x512 JUMP JUMPDEST PUSH1 0x40 MLOAD DUP1 SWAP2 SUB SWAP1 LOG1 DUP1 DUP3 PUSH8 0x8AC7230489E80000 PUSH2 0x19D SWAP2 SWAP1 PUSH2 0x530 JUMP JUMPDEST PUSH2 0x1A7 SWAP2 SWAP1 PUSH2 0x530 JUMP JUMPDEST SWAP6 POP POP POP POP POP POP SWAP4 SWAP3 POP POP POP JUMP JUMPDEST PUSH8 0x16345785D8A0000 DUP2 JUMP JUMPDEST PUSH0 DUP2 SWAP1 POP SWAP2 SWAP1 POP JUMP JUMPDEST PUSH2 0x1D3 DUP2 PUSH2 0x1C1 JUMP JUMPDEST DUP3 MSTORE POP POP JUMP JUMPDEST PUSH0 PUSH1 0x20 DUP3 ADD SWAP1 POP PUSH2 0x1EC PUSH0 DUP4 ADD DUP5 PUSH2 0x1CA JUMP JUMPDEST SWAP3 SWAP2 POP POP JUMP JUMPDEST PUSH0 PUSH1 0x40 MLOAD SWAP1 POP SWAP1 JUMP JUMPDEST PUSH0 DUP1 REVERT JUMPDEST PUSH0 DUP1 REVERT JUMPDEST PUSH0 DUP1 REVERT JUMPDEST PUSH0 DUP1 REVERT JUMPDEST PUSH0 PUSH1 0x1F NOT PUSH1 0x1F DUP4 ADD AND SWAP1 POP SWAP2 SWAP1 POP JUMP JUMPDEST PUSH32 0x4E487B7100000000000000000000000000000000000000000000000000000000 PUSH0 MSTORE PUSH1 0x41 PUSH1 0x4 MSTORE PUSH1 0x24 PUSH0 REVERT JUMPDEST PUSH2 0x251 DUP3 PUSH2 0x20B JUMP JUMPDEST DUP2 ADD DUP2 DUP2 LT PUSH8 0xFFFFFFFFFFFFFFFF DUP3 GT OR ISZERO PUSH2 0x270 JUMPI PUSH2 0x26F PUSH2 0x21B JUMP JUMPDEST JUMPDEST DUP1 PUSH1 0x40 MSTORE POP POP POP JUMP JUMPDEST PUSH0 PUSH2 0x282 PUSH2 0x1F2 JUMP JUMPDEST SWAP1 POP PUSH2 0x28E DUP3 DUP3 PUSH2 0x248 JUMP JUMPDEST SWAP2 SWAP1 POP JUMP JUMPDEST PUSH0 PUSH8 0xFFFFFFFFFFFFFFFF DUP3 GT ISZERO PUSH2 0x2AD JUMPI PUSH2 0x2AC PUSH2 0x21B JUMP JUMPDEST JUMPDEST PUSH2 0x2B6 DUP3 PUSH2 0x20B JUMP JUMPDEST SWAP1 POP PUSH1 0x20 DUP2 ADD SWAP1 POP SWAP2 SWAP1 POP JUMP JUMPDEST DUP3 DUP2 DUP4 CALLDATACOPY PUSH0 DUP4 DUP4 ADD MSTORE POP POP POP JUMP JUMPDEST PUSH0 PUSH2 0x2E3 PUSH2 0x2DE DUP5 PUSH2 0x293 JUMP JUMPDEST PUSH2 0x279 JUMP JUMPDEST SWAP1 POP DUP3 DUP2 MSTORE PUSH1 0x20 DUP2 ADD DUP5 DUP5 DUP5 ADD GT ISZERO PUSH2 0x2FF JUMPI PUSH2 0x2FE PUSH2 0x207 JUMP JUMPDEST JUMPDEST PUSH2 0x30A DUP5 DUP3 DUP6 PUSH2 0x2C3 JUMP JUMPDEST POP SWAP4 SWAP3 POP POP POP JUMP JUMPDEST PUSH0 DUP3 PUSH1 0x1F DUP4 ADD SLT PUSH2 0x326 JUMPI PUSH2 0x325 PUSH2 0x203 JUMP JUMPDEST JUMPDEST DUP2 CALLDATALOAD PUSH2 0x336 DUP5 DUP3 PUSH1 0x20 DUP7 ADD PUSH2 0x2D1 JUMP JUMPDEST SWAP2 POP POP SWAP3 SWAP2 POP POP JUMP JUMPDEST PUSH2 0x348 DUP2 PUSH2 0x1C1 JUMP JUMPDEST DUP2 EQ PUSH2 0x352 JUMPI PUSH0 DUP1 REVERT JUMPDEST POP JUMP JUMPDEST PUSH0 DUP2 CALLDATALOAD SWAP1 POP PUSH2 0x363 DUP2 PUSH2 0x33F JUMP JUMPDEST SWAP3 SWAP2 POP POP JUMP JUMPDEST PUSH0 DUP1 PUSH0 PUSH1 0x60 DUP5 DUP7 SUB SLT ISZERO PUSH2 0x380 JUMPI PUSH2 0x37F PUSH2 0x1FB JUMP JUMPDEST JUMPDEST PUSH0 DUP5 ADD CALLDATALOAD PUSH8 0xFFFFFFFFFFFFFFFF DUP2 GT ISZERO PUSH2 0x39D JUMPI PUSH2 0x39C PUSH2 0x1FF JUMP JUMPDEST JUMPDEST PUSH2 0x3A9 DUP7 DUP3 DUP8 ADD PUSH2 0x312 JUMP JUMPDEST SWAP4 POP POP PUSH1 0x20 DUP5 ADD CALLDATALOAD PUSH8 0xFFFFFFFFFFFFFFFF DUP2 GT ISZERO PUSH2 0x3CA JUMPI PUSH2 0x3C9 PUSH2 0x1FF JUMP JUMPDEST JUMPDEST PUSH2 0x3D6 DUP7 DUP3 DUP8 ADD PUSH2 0x312 JUMP JUMPDEST SWAP3 POP POP PUSH1 0x40 PUSH2 0x3E7 DUP7 DUP3 DUP8 ADD PUSH2 0x355 JUMP JUMPDEST SWAP2 POP POP SWAP3 POP SWAP3 POP SWAP3 JUMP JUMPDEST PUSH32 0x4E487B7100000000000000000000000000000000000000000000000000000000 PUSH0 MSTORE PUSH1 0x11 PUSH1 0x4 MSTORE PUSH1 0x24 PUSH0 REVERT JUMPDEST PUSH0 PUSH2 0x428 DUP3 PUSH2 0x1C1 JUMP JUMPDEST SWAP2 POP PUSH2 0x433 DUP4 PUSH2 0x1C1 JUMP JUMPDEST SWAP3 POP DUP3 DUP3 SUB SWAP1 POP DUP2 DUP2 GT ISZERO PUSH2 0x44B JUMPI PUSH2 0x44A PUSH2 0x3F1 JUMP JUMPDEST JUMPDEST SWAP3 SWAP2 POP POP JUMP JUMPDEST PUSH0 PUSH2 0x45B DUP3 PUSH2 0x1C1 JUMP JUMPDEST SWAP2 POP PUSH2 0x466 DUP4 PUSH2 0x1C1 JUMP JUMPDEST SWAP3 POP DUP3 DUP3 MUL PUSH2 0x474 DUP2 PUSH2 0x1C1 JUMP JUMPDEST SWAP2 POP DUP3 DUP3 DIV DUP5 EQ DUP4 ISZERO OR PUSH2 0x48B JUMPI PUSH2 0x48A PUSH2 0x3F1 JUMP JUMPDEST JUMPDEST POP SWAP3 SWAP2 POP POP JUMP JUMPDEST PUSH0 DUP3 DUP3 MSTORE PUSH1 0x20 DUP3 ADD SWAP1 POP SWAP3 SWAP2 POP POP JUMP JUMPDEST PUSH32 0x5741524E494E47203A2052657475726E696E6720612074657374696E67206E75 PUSH0 DUP3 ADD MSTORE PUSH32 0x6D62657221000000000000000000000000000000000000000000000000000000 PUSH1 0x20 DUP3 ADD MSTORE POP JUMP JUMPDEST PUSH0 PUSH2 0x4FC PUSH1 0x25 DUP4 PUSH2 0x492 JUMP JUMPDEST SWAP2 POP PUSH2 0x507 DUP3 PUSH2 0x4A2 JUMP JUMPDEST PUSH1 0x40 DUP3 ADD SWAP1 POP SWAP2 SWAP1 POP JUMP JUMPDEST PUSH0 PUSH1 0x20 DUP3 ADD SWAP1 POP DUP2 DUP2 SUB PUSH0 DUP4 ADD MSTORE PUSH2 0x529 DUP2 PUSH2 0x4F0 JUMP JUMPDEST SWAP1 POP SWAP2 SWAP1 POP JUMP JUMPDEST PUSH0 PUSH2 0x53A DUP3 PUSH2 0x1C1 JUMP JUMPDEST SWAP2 POP PUSH2 0x545 DUP4 PUSH2 0x1C1 JUMP JUMPDEST SWAP3 POP DUP3 DUP3 ADD SWAP1 POP DUP1 DUP3 GT ISZERO PUSH2 0x55D JUMPI PUSH2 0x55C PUSH2 0x3F1 JUMP JUMPDEST JUMPDEST SWAP3 SWAP2 POP POP JUMP INVALID LOG2 PUSH5 0x6970667358 0x22 SLT KECCAK256 0xE1 0xC4 PUSH24 0x28B6C9B30FF69CAD1145B92A42408EEA7606C9034E6B6ED8 0xD3 0xB6 DUP10 0x4D PUSH23 0x64736F6C634300081A0033000000000000000000000000 "
		},
		"gasEstimates": {
			"creation": {
				"codeDepositCost": "286600",
				"executionCost": "322",
				"totalCost": "286922"
			},
			"external": {
				"BASE_REWARD()": "303",
				"DISTANCE_RATE()": "369",
				"REPUTATION_FACTOR()": "325",
				"calculateLTKReward(string,string,uint256)": "infinite"
			}
		},
		"methodIdentifiers": {
			"BASE_REWARD()": "22009af6",
			"DISTANCE_RATE()": "d948c588",
			"REPUTATION_FACTOR()": "c25838a2",
			"calculateLTKReward(string,string,uint256)": "ce65595b"
		}
	},
	"abi": [
		{
			"anonymous": false,
			"inputs": [
				{
					"indexed": false,
					"internalType": "string",
					"name": "message",
					"type": "string"
				}
			],
			"name": "RewardCalculated",
			"type": "event"
		},
		{
			"inputs": [],
			"name": "BASE_REWARD",
			"outputs": [
				{
					"internalType": "uint256",
					"name": "",
					"type": "uint256"
				}
			],
			"stateMutability": "view",
			"type": "function"
		},
		{
			"inputs": [],
			"name": "DISTANCE_RATE",
			"outputs": [
				{
					"internalType": "uint256",
					"name": "",
					"type": "uint256"
				}
			],
			"stateMutability": "view",
			"type": "function"
		},
		{
			"inputs": [],
			"name": "REPUTATION_FACTOR",
			"outputs": [
				{
					"internalType": "uint256",
					"name": "",
					"type": "uint256"
				}
			],
			"stateMutability": "view",
			"type": "function"
		},
		{
			"inputs": [
				{
					"internalType": "string",
					"name": "_senderLoc",
					"type": "string"
				},
				{
					"internalType": "string",
					"name": "_receiverLoc",
					"type": "string"
				},
				{
					"internalType": "uint256",
					"name": "_courierReputaion",
					"type": "uint256"
				}
			],
			"name": "calculateLTKReward",
			"outputs": [
				{
					"internalType": "uint256",
					"name": "",
					"type": "uint256"
				}
			],
			"stateMutability": "nonpayable",
			"type": "function"
		}
	]
}